{
  "_format": "hh-sol-artifact-1",
  "contractName": "Pixels",
  "sourceName": "contracts/Pixels.sol",
  "abi": [
    {
      "inputs": [
        {
          "internalType": "string",
          "name": "_baseuri",
          "type": "string"
        },
        {
          "internalType": "address",
          "name": "_vault",
          "type": "address"
        },
        {
          "internalType": "uint32",
          "name": "_medAreaSize",
          "type": "uint32"
        },
        {
          "internalType": "uint32",
          "name": "_topAreaSize",
          "type": "uint32"
        }
      ],
      "stateMutability": "nonpayable",
      "type": "constructor"
    },
    {
      "anonymous": false,
      "inputs": [
        {
          "indexed": true,
          "internalType": "address",
          "name": "owner",
          "type": "address"
        },
        {
          "indexed": true,
          "internalType": "address",
          "name": "approved",
          "type": "address"
        },
        {
          "indexed": true,
          "internalType": "uint256",
          "name": "tokenId",
          "type": "uint256"
        }
      ],
      "name": "Approval",
      "type": "event"
    },
    {
      "anonymous": false,
      "inputs": [
        {
          "indexed": true,
          "internalType": "address",
          "name": "owner",
          "type": "address"
        },
        {
          "indexed": true,
          "internalType": "address",
          "name": "operator",
          "type": "address"
        },
        {
          "indexed": false,
          "internalType": "bool",
          "name": "approved",
          "type": "bool"
        }
      ],
      "name": "ApprovalForAll",
      "type": "event"
    },
    {
      "anonymous": false,
      "inputs": [
        {
          "indexed": true,
          "internalType": "address",
          "name": "from",
          "type": "address"
        },
        {
          "indexed": true,
          "internalType": "address",
          "name": "to",
          "type": "address"
        },
        {
          "indexed": true,
          "internalType": "uint256",
          "name": "tokenId",
          "type": "uint256"
        }
      ],
      "name": "Transfer",
      "type": "event"
    },
    {
      "inputs": [
        {
          "internalType": "uint256",
          "name": "",
          "type": "uint256"
        }
      ],
      "name": "MEDIUM",
      "outputs": [
        {
          "internalType": "uint32",
          "name": "",
          "type": "uint32"
        }
      ],
      "stateMutability": "view",
      "type": "function"
    },
    {
      "inputs": [
        {
          "internalType": "uint256",
          "name": "",
          "type": "uint256"
        }
      ],
      "name": "TOP",
      "outputs": [
        {
          "internalType": "uint32",
          "name": "",
          "type": "uint32"
        }
      ],
      "stateMutability": "view",
      "type": "function"
    },
    {
      "inputs": [
        {
          "internalType": "address",
          "name": "to",
          "type": "address"
        },
        {
          "internalType": "uint256",
          "name": "tokenId",
          "type": "uint256"
        }
      ],
      "name": "approve",
      "outputs": [],
      "stateMutability": "nonpayable",
      "type": "function"
    },
    {
      "inputs": [
        {
          "internalType": "uint256",
          "name": "",
          "type": "uint256"
        }
      ],
      "name": "areas",
      "outputs": [
        {
          "internalType": "string",
          "name": "ipfs",
          "type": "string"
        },
        {
          "internalType": "uint64",
          "name": "mintedAtBlock",
          "type": "uint64"
        }
      ],
      "stateMutability": "view",
      "type": "function"
    },
    {
      "inputs": [
        {
          "internalType": "address",
          "name": "owner",
          "type": "address"
        }
      ],
      "name": "balanceOf",
      "outputs": [
        {
          "internalType": "uint256",
          "name": "",
          "type": "uint256"
        }
      ],
      "stateMutability": "view",
      "type": "function"
    },
    {
      "inputs": [],
      "name": "baseURI",
      "outputs": [
        {
          "internalType": "string",
          "name": "",
          "type": "string"
        }
      ],
      "stateMutability": "view",
      "type": "function"
    },
    {
      "inputs": [
        {
          "internalType": "uint256",
          "name": "id",
          "type": "uint256"
        },
        {
          "internalType": "string",
          "name": "ipfsHash",
          "type": "string"
        }
      ],
      "name": "buy",
      "outputs": [],
      "stateMutability": "payable",
      "type": "function"
    },
    {
      "inputs": [
        {
          "internalType": "uint32[4]",
          "name": "area",
          "type": "uint32[4]"
        },
        {
          "internalType": "uint256",
          "name": "commitNonce",
          "type": "uint256"
        },
        {
          "internalType": "string",
          "name": "ipfs",
          "type": "string"
        }
      ],
      "name": "buyPixels",
      "outputs": [],
      "stateMutability": "payable",
      "type": "function"
    },
    {
      "inputs": [
        {
          "internalType": "bytes32",
          "name": "areaHash",
          "type": "bytes32"
        }
      ],
      "name": "commitToPixels",
      "outputs": [],
      "stateMutability": "nonpayable",
      "type": "function"
    },
    {
      "inputs": [
        {
          "internalType": "bytes32",
          "name": "",
          "type": "bytes32"
        }
      ],
      "name": "commits",
      "outputs": [
        {
          "internalType": "uint256",
          "name": "",
          "type": "uint256"
        }
      ],
      "stateMutability": "view",
      "type": "function"
    },
    {
      "inputs": [],
      "name": "fee",
      "outputs": [
        {
          "internalType": "uint32",
          "name": "",
          "type": "uint32"
        }
      ],
      "stateMutability": "view",
      "type": "function"
    },
    {
      "inputs": [
        {
          "internalType": "uint256",
          "name": "",
          "type": "uint256"
        }
      ],
      "name": "forSale",
      "outputs": [
        {
          "internalType": "uint128",
          "name": "price",
          "type": "uint128"
        },
        {
          "internalType": "uint128",
          "name": "end",
          "type": "uint128"
        }
      ],
      "stateMutability": "view",
      "type": "function"
    },
    {
      "inputs": [
        {
          "internalType": "uint256",
          "name": "tokenId",
          "type": "uint256"
        }
      ],
      "name": "getApproved",
      "outputs": [
        {
          "internalType": "address",
          "name": "",
          "type": "address"
        }
      ],
      "stateMutability": "view",
      "type": "function"
    },
    {
      "inputs": [],
      "name": "getAreasCount",
      "outputs": [
        {
          "internalType": "uint256",
          "name": "",
          "type": "uint256"
        }
      ],
      "stateMutability": "view",
      "type": "function"
    },
    {
      "inputs": [
        {
          "internalType": "uint256",
          "name": "id",
          "type": "uint256"
        }
      ],
      "name": "getBounds",
      "outputs": [
        {
          "internalType": "uint32[4]",
          "name": "",
          "type": "uint32[4]"
        }
      ],
      "stateMutability": "view",
      "type": "function"
    },
    {
      "inputs": [],
      "name": "height",
      "outputs": [
        {
          "internalType": "uint32",
          "name": "",
          "type": "uint32"
        }
      ],
      "stateMutability": "view",
      "type": "function"
    },
    {
      "inputs": [
        {
          "internalType": "address",
          "name": "owner",
          "type": "address"
        },
        {
          "internalType": "address",
          "name": "operator",
          "type": "address"
        }
      ],
      "name": "isApprovedForAll",
      "outputs": [
        {
          "internalType": "bool",
          "name": "",
          "type": "bool"
        }
      ],
      "stateMutability": "view",
      "type": "function"
    },
    {
      "inputs": [
        {
          "internalType": "uint32[4]",
          "name": "area",
          "type": "uint32[4]"
        }
      ],
      "name": "isAreaAvailable",
      "outputs": [
        {
          "internalType": "uint256",
          "name": "",
          "type": "uint256"
        },
        {
          "internalType": "bool",
          "name": "",
          "type": "bool"
        }
      ],
      "stateMutability": "view",
      "type": "function"
    },
    {
      "inputs": [
        {
          "internalType": "uint256",
          "name": "id",
          "type": "uint256"
        }
      ],
      "name": "isForSale",
      "outputs": [
        {
          "internalType": "bool",
          "name": "",
          "type": "bool"
        }
      ],
      "stateMutability": "view",
      "type": "function"
    },
    {
      "inputs": [],
      "name": "name",
      "outputs": [
        {
          "internalType": "string",
          "name": "",
          "type": "string"
        }
      ],
      "stateMutability": "view",
      "type": "function"
    },
    {
      "inputs": [
        {
          "internalType": "uint32[4]",
          "name": "obj1",
          "type": "uint32[4]"
        },
        {
          "internalType": "uint32[4]",
          "name": "obj2",
          "type": "uint32[4]"
        }
      ],
      "name": "overlap",
      "outputs": [
        {
          "internalType": "uint32",
          "name": "",
          "type": "uint32"
        }
      ],
      "stateMutability": "pure",
      "type": "function"
    },
    {
      "inputs": [
        {
          "internalType": "uint256",
          "name": "tokenId",
          "type": "uint256"
        }
      ],
      "name": "ownerOf",
      "outputs": [
        {
          "internalType": "address",
          "name": "",
          "type": "address"
        }
      ],
      "stateMutability": "view",
      "type": "function"
    },
    {
      "inputs": [
        {
          "internalType": "uint32[4]",
          "name": "area",
          "type": "uint32[4]"
        }
      ],
      "name": "pixelsCost",
      "outputs": [
        {
          "internalType": "uint256",
          "name": "",
          "type": "uint256"
        }
      ],
      "stateMutability": "view",
      "type": "function"
    },
    {
      "inputs": [
        {
          "internalType": "uint256[]",
          "name": "fraudIndex",
          "type": "uint256[]"
        },
        {
          "internalType": "uint256[]",
          "name": "originalIndex",
          "type": "uint256[]"
        }
      ],
      "name": "removeFraud",
      "outputs": [],
      "stateMutability": "nonpayable",
      "type": "function"
    },
    {
      "inputs": [
        {
          "internalType": "address",
          "name": "from",
          "type": "address"
        },
        {
          "internalType": "address",
          "name": "to",
          "type": "address"
        },
        {
          "internalType": "uint256",
          "name": "tokenId",
          "type": "uint256"
        }
      ],
      "name": "safeTransferFrom",
      "outputs": [],
      "stateMutability": "nonpayable",
      "type": "function"
    },
    {
      "inputs": [
        {
          "internalType": "address",
          "name": "from",
          "type": "address"
        },
        {
          "internalType": "address",
          "name": "to",
          "type": "address"
        },
        {
          "internalType": "uint256",
          "name": "tokenId",
          "type": "uint256"
        },
        {
          "internalType": "bytes",
          "name": "_data",
          "type": "bytes"
        }
      ],
      "name": "safeTransferFrom",
      "outputs": [],
      "stateMutability": "nonpayable",
      "type": "function"
    },
    {
      "inputs": [
        {
          "internalType": "uint256",
          "name": "id",
          "type": "uint256"
        },
        {
          "internalType": "uint128",
          "name": "price",
          "type": "uint128"
        },
        {
          "internalType": "uint8",
          "name": "duration",
          "type": "uint8"
        }
      ],
      "name": "sell",
      "outputs": [],
      "stateMutability": "nonpayable",
      "type": "function"
    },
    {
      "inputs": [
        {
          "internalType": "address",
          "name": "operator",
          "type": "address"
        },
        {
          "internalType": "bool",
          "name": "approved",
          "type": "bool"
        }
      ],
      "name": "setApprovalForAll",
      "outputs": [],
      "stateMutability": "nonpayable",
      "type": "function"
    },
    {
      "inputs": [
        {
          "internalType": "string",
          "name": "_baseuri",
          "type": "string"
        }
      ],
      "name": "setBaseURI",
      "outputs": [],
      "stateMutability": "nonpayable",
      "type": "function"
    },
    {
      "inputs": [
        {
          "internalType": "address",
          "name": "_creator",
          "type": "address"
        }
      ],
      "name": "setCreator",
      "outputs": [],
      "stateMutability": "nonpayable",
      "type": "function"
    },
    {
      "inputs": [
        {
          "internalType": "uint32",
          "name": "_fee",
          "type": "uint32"
        }
      ],
      "name": "setFee",
      "outputs": [],
      "stateMutability": "nonpayable",
      "type": "function"
    },
    {
      "inputs": [
        {
          "internalType": "uint256",
          "name": "id",
          "type": "uint256"
        },
        {
          "internalType": "string",
          "name": "ipfsHash",
          "type": "string"
        }
      ],
      "name": "setIPFSHash",
      "outputs": [],
      "stateMutability": "nonpayable",
      "type": "function"
    },
    {
      "inputs": [
        {
          "internalType": "bytes4",
          "name": "interfaceId",
          "type": "bytes4"
        }
      ],
      "name": "supportsInterface",
      "outputs": [
        {
          "internalType": "bool",
          "name": "",
          "type": "bool"
        }
      ],
      "stateMutability": "view",
      "type": "function"
    },
    {
      "inputs": [],
      "name": "symbol",
      "outputs": [
        {
          "internalType": "string",
          "name": "",
          "type": "string"
        }
      ],
      "stateMutability": "view",
      "type": "function"
    },
    {
      "inputs": [
        {
          "internalType": "uint256",
          "name": "tokenId",
          "type": "uint256"
        }
      ],
      "name": "tokenURI",
      "outputs": [
        {
          "internalType": "string",
          "name": "",
          "type": "string"
        }
      ],
      "stateMutability": "view",
      "type": "function"
    },
    {
      "inputs": [
        {
          "internalType": "address",
          "name": "from",
          "type": "address"
        },
        {
          "internalType": "address",
          "name": "to",
          "type": "address"
        },
        {
          "internalType": "uint256",
          "name": "tokenId",
          "type": "uint256"
        }
      ],
      "name": "transferFrom",
      "outputs": [],
      "stateMutability": "nonpayable",
      "type": "function"
    },
    {
      "inputs": [],
      "name": "width",
      "outputs": [
        {
          "internalType": "uint32",
          "name": "",
          "type": "uint32"
        }
      ],
      "stateMutability": "view",
      "type": "function"
    }
  ],
  "bytecode": "0x6080604052600880546103e863ffffffff199091161763ffffffff60201b19166503e8000000001790553480156200003657600080fd5b5060405162003d6638038062003d66833981016040819052620000599162000447565b604080518082018252601481527f4d696c6c696f6e506978656c7347616c6c6572790000000000000000000000006020808301918252835180850190945260038452624d504760e81b908401528151919291620000b991600091620002d6565b508051620000cf906001906020840190620002d6565b50620000dd915050620002d2565b60088054600d80546001600160a01b0319166001600160a01b03888116919091179091556103e86001600160601b039092166c0100000000000000000000000094909116939093029290921763ffffffff19169190911763ffffffff60201b19166503e8000000001763ffffffff60401b19166901770000000000000000179055835162000173906009906020870190620002d6565b5060405180608001604052806002846200018e919062000550565b600854620001a59060029063ffffffff1662000550565b620001b1919062000580565b63ffffffff168152602001620001c960028562000550565b600854620001e890600290640100000000900463ffffffff1662000550565b620001f4919062000580565b63ffffffff90811682528416602082018190526040909101526200021d90600690600462000365565b50604051806080016040528060028362000238919062000550565b6008546200024f9060029063ffffffff1662000550565b6200025b919062000580565b63ffffffff1681526020016200027360028462000550565b6008546200029290600290640100000000900463ffffffff1662000550565b6200029e919062000580565b63ffffffff9081168252831660208201819052604090910152620002c790600790600462000365565b505050505062000605565b3390565b828054620002e490620005b2565b90600052602060002090601f01602090048101928262000308576000855562000353565b82601f106200032357805160ff191683800117855562000353565b8280016001018555821562000353579182015b828111156200035357825182559160200191906001019062000336565b5062000361929150620003fe565b5090565b600183019183908215620003535791602002820160005b83821115620003c257835183826101000a81548163ffffffff021916908363ffffffff16021790555092602001926004016020816003010492830192600103026200037c565b8015620003f45782816101000a81549063ffffffff0219169055600401602081600301049283019260010302620003c2565b5050620003619291505b5b80821115620003615760008155600101620003ff565b80516001600160a01b03811681146200042d57600080fd5b919050565b805163ffffffff811681146200042d57600080fd5b600080600080608085870312156200045d578384fd5b84516001600160401b038082111562000474578586fd5b818701915087601f83011262000488578586fd5b8151818111156200049d576200049d620005ef565b6040516020601f8301601f1916820181018481118382101715620004c557620004c5620005ef565b60405282825284830181018b1015620004dc578889fd5b8893505b82841015620004ff5784840181015182850182015292830192620004e0565b828411156200051057888184840101525b81985062000520818b0162000415565b97505050505050620005356040860162000432565b9150620005456060860162000432565b905092959194509250565b600063ffffffff808416806200057457634e487b7160e01b83526012600452602483fd5b92169190910492915050565b600063ffffffff83811690831681811015620005aa57634e487b7160e01b83526011600452602483fd5b039392505050565b600281046001821680620005c757607f821691505b60208210811415620005e957634e487b7160e01b600052602260045260246000fd5b50919050565b634e487b7160e01b600052604160045260246000fd5b61375180620006156000396000f3fe60806040526004361061021a5760003560e01c8063803a2e4a11610123578063abeff7e2116100ab578063d4ad91791161006f578063d4ad917914610638578063ddca3f4314610666578063e42008601461067b578063e985e9c51461069b578063f68440f9146106bb5761021a565b8063abeff7e2146105b0578063b7dc3b18146105c5578063b88d4fde146105d8578063b963daef146105f8578063c87b56dd146106185761021a565b806395d89b41116100f257806395d89b41146105185780639b2c61251461052d5780639ededf771461055b578063a049c06f14610570578063a22cb465146105905761021a565b8063803a2e4a1461049857806384467f8f146104b85780638546d002146104cb5780639230d3b1146104eb5761021a565b80632bba5a02116101a6578063478857811161017557806347885781146103f657806355f804b3146104235780636352211e146104435780636c0360eb1461046357806370a08231146104785761021a565b80632bba5a02146103765780632e52210f146103965780633f516018146103b657806342842e0e146103d65761021a565b80630ef26743116101ed5780630ef26743146102c65780631ab971ab146102e857806323b872dd14610308578063255342e1146103285780632831f2f4146103485761021a565b806301ffc9a71461021f57806306fdde0314610255578063081812fc14610277578063095ea7b3146102a4575b600080fd5b34801561022b57600080fd5b5061023f61023a366004612a78565b6106db565b60405161024c9190612cd8565b60405180910390f35b34801561026157600080fd5b5061026a610723565b60405161024c9190612ce3565b34801561028357600080fd5b50610297610292366004612a60565b6107b5565b60405161024c9190612c5a565b3480156102b057600080fd5b506102c46102bf36600461293c565b610801565b005b3480156102d257600080fd5b506102db610899565b60405161024c9190613416565b3480156102f457600080fd5b506102c4610303366004612b8f565b6108ad565b34801561031457600080fd5b506102c461032336600461284f565b610946565b34801561033457600080fd5b506102db6103433660046129e8565b61097e565b34801561035457600080fd5b50610368610363366004612a60565b610a33565b60405161024c9291906133e3565b34801561038257600080fd5b506102c4610391366004612b3e565b610a59565b3480156103a257600080fd5b506102db6103b1366004612a60565b610b05565b3480156103c257600080fd5b506102c46103d1366004612803565b610b35565b3480156103e257600080fd5b506102c46103f136600461284f565b610b9e565b34801561040257600080fd5b50610416610411366004612a60565b610bb9565b60405161024c91906133fd565b34801561042f57600080fd5b506102c461043e366004612ab0565b610bcb565b34801561044f57600080fd5b5061029761045e366004612a60565b610c1e565b34801561046f57600080fd5b5061026a610c53565b34801561048457600080fd5b50610416610493366004612803565b610ce1565b3480156104a457600080fd5b506102c46104b3366004612a60565b610d25565b6102c46104c6366004612a14565b610d64565b3480156104d757600080fd5b5061023f6104e6366004612a60565b610f5e565b3480156104f757600080fd5b5061050b610506366004612a60565b610fb8565b60405161024c9190612ca1565b34801561052457600080fd5b5061026a611051565b34801561053957600080fd5b5061054d610548366004612a60565b611060565b60405161024c929190612cf6565b34801561056757600080fd5b506102db611125565b34801561057c57600080fd5b506102db61058b366004612a60565b611131565b34801561059c57600080fd5b506102c46105ab366004612902565b611141565b3480156105bc57600080fd5b5061041661120f565b6102c46105d3366004612af5565b611215565b3480156105e457600080fd5b506102c46105f336600461288a565b6113c6565b34801561060457600080fd5b506102c4610613366004612af5565b611405565b34801561062457600080fd5b5061026a610633366004612a60565b611486565b34801561064457600080fd5b506106586106533660046129cd565b611509565b60405161024c929190613406565b34801561067257600080fd5b506102db611649565b34801561068757600080fd5b506104166106963660046129cd565b61165c565b3480156106a757600080fd5b5061023f6106b636600461281d565b61179f565b3480156106c757600080fd5b506102c46106d6366004612965565b6117cd565b60006001600160e01b031982166380ac58cd60e01b148061070c57506001600160e01b03198216635b5e139f60e01b145b8061071b575061071b82611b31565b90505b919050565b60606000805461073290613659565b80601f016020809104026020016040519081016040528092919081815260200182805461075e90613659565b80156107ab5780601f10610780576101008083540402835291602001916107ab565b820191906000526020600020905b81548152906001019060200180831161078e57829003601f168201915b5050505050905090565b60006107c082611b4a565b6107e55760405162461bcd60e51b81526004016107dc9061316b565b60405180910390fd5b506000908152600460205260409020546001600160a01b031690565b600061080c82610c1e565b9050806001600160a01b0316836001600160a01b031614156108405760405162461bcd60e51b81526004016107dc90613286565b806001600160a01b0316610852611b67565b6001600160a01b0316148061086e575061086e816106b6611b67565b61088a5760405162461bcd60e51b81526004016107dc90612fac565b6108948383611b6b565b505050565b600854640100000000900463ffffffff1681565b6108b5611b67565b600854600160601b90046001600160a01b039081169116146108e95760405162461bcd60e51b81526004016107dc906133ac565b60085463ffffffff600160401b90910481169082161061091b5760405162461bcd60e51b81526004016107dc90612e0c565b6008805463ffffffff909216600160401b026bffffffff000000000000000019909216919091179055565b610957610951611b67565b82611bd9565b6109735760405162461bcd60e51b81526004016107dc906132fe565b610894838383611c5e565b6000806109dd8161099d868260200201518660005b6020020151611d8b565b604087015187516109ce916109b19161343f565b60408801518860005b60200201516109c9919061343f565b611da8565b6109d891906135b6565b611d8b565b90506000610a1c816109f88760016020020151876001610993565b606088015160208901516109ce91610a0f9161343f565b60608901518960016109ba565b9050610a288183613498565b925050505b92915050565b600b602052600090815260409020546001600160801b0380821691600160801b90041682565b610a61611b67565b6001600160a01b0316610a7384610c1e565b6001600160a01b031614610a995760405162461bcd60e51b81526004016107dc90612ddf565b6000838152600b6020526040902080546fffffffffffffffffffffffffffffffff19166001600160801b038416178155610ad960ff831662015180613552565b610ae89062ffffff1642613427565b81546001600160801b03918216600160801b029116179055505050565b60078160048110610b1557600080fd5b60089182820401919006600402915054906101000a900463ffffffff1681565b610b3d611b67565b600854600160601b90046001600160a01b03908116911614610b715760405162461bcd60e51b81526004016107dc90612eb3565b600880546001600160a01b03909216600160601b026bffffffffffffffffffffffff909216919091179055565b610894838383604051806020016040528060008152506113c6565b600c6020526000908152604090205481565b610bd3611b67565b600854600160601b90046001600160a01b03908116911614610c075760405162461bcd60e51b81526004016107dc90612d21565b8051610c1a906009906020840190612439565b5050565b6000818152600260205260408120546001600160a01b03168061071b5760405162461bcd60e51b81526004016107dc90613053565b60098054610c6090613659565b80601f0160208091040260200160405190810160405280929190818152602001828054610c8c90613659565b8015610cd95780601f10610cae57610100808354040283529160200191610cd9565b820191906000526020600020905b815481529060010190602001808311610cbc57829003601f168201915b505050505081565b60006001600160a01b038216610d095760405162461bcd60e51b81526004016107dc90613009565b506001600160a01b031660009081526003602052604090205490565b6000818152600c602052604090205415610d515760405162461bcd60e51b81526004016107dc9061309c565b6000908152600c60205260409020439055565b6008546040850151855163ffffffff90921691610d81919061343f565b63ffffffff1611158015610dc45750600854640100000000900463ffffffff1684600360200201518560016020020151610dbb919061343f565b63ffffffff1611155b610de05760405162461bcd60e51b81526004016107dc90612f85565b610df28484610ded611b67565b611dbe565b6000610dfd8561165c565b905034811115610e1f5760405162461bcd60e51b81526004016107dc90613200565b610e276124bd565b8581526001600160401b03431660408083019190915280516020601f8601819004810282018101909252848152908590859081908401838280828437600092018290525060208601949094525050600a8054600181018255925250815182916003027fc65a7bb8d6351c1cf70c95a316cc6a92839c986682d98bc35f958f4883f9d2a80190610eb990829060046124e4565b506020828101518051610ed29260018501920190612439565b50604091909101516002909101805467ffffffffffffffff19166001600160401b03909216919091179055610f1c610f08611b67565b600a54610f17906001906135ff565b611f71565b600d546040516001600160a01b03909116903480156108fc02916000818181858888f19350505050158015610f55573d6000803e3d6000fd5b50505050505050565b6000818152600b602090815260408083208151808301909252546001600160801b03808216808452600160801b90920416928201929092529015801590610fb157504281602001516001600160801b0316115b9392505050565b610fc061257b565b600a8281548110610fe157634e487b7160e01b600052603260045260246000fd5b600091825260209091206040805160808101909152916003020160048282826020028201916000905b82829054906101000a900463ffffffff1663ffffffff168152602001906004019060208260030104928301926001038202915080841161100a575094979650505050505050565b60606001805461073290613659565b600a818154811061107057600080fd5b906000526020600020906003020160009150905080600101805461109390613659565b80601f01602080910402602001604051908101604052809291908181526020018280546110bf90613659565b801561110c5780601f106110e15761010080835404028352916020019161110c565b820191906000526020600020905b8154815290600101906020018083116110ef57829003601f168201915b505050600290930154919250506001600160401b031682565b60085463ffffffff1681565b60068160048110610b1557600080fd5b611149611b67565b6001600160a01b0316826001600160a01b0316141561117a5760405162461bcd60e51b81526004016107dc90612e7c565b8060056000611187611b67565b6001600160a01b03908116825260208083019390935260409182016000908120918716808252919093529120805460ff1916921515929092179091556111cb611b67565b6001600160a01b03167f17307eab39ab6107e8899845ad3d59bd9653f200f220920489ca2b5937696c31836040516112039190612cd8565b60405180910390a35050565b600a5490565b6000838152600b60209081526040918290208251808401909352546001600160801b038082168452600160801b909104169082015261125384610f5e565b61126f5760405162461bcd60e51b81526004016107dc9061334f565b80516001600160801b03163410156112995760405162461bcd60e51b81526004016107dc90612f10565b6008548151600091612710916112bc91600160401b900463ffffffff1690613523565b6112c6919061345e565b6001600160801b031690508383600a87815481106112f457634e487b7160e01b600052603260045260246000fd5b90600052602060002090600302016001019190611312929190612599565b506000858152600b602052604081205561132b85610c1e565b6001600160a01b03166108fc61134183346135ff565b6040518115909202916000818181858888f19350505050158015611369573d6000803e3d6000fd5b50600d546040516001600160a01b039091169082156108fc029083906000818181858888f193505050501580156113a4573d6000803e3d6000fd5b506113bf6113b186610c1e565b6113b9611b67565b87611c5e565b5050505050565b6113d76113d1611b67565b83611bd9565b6113f35760405162461bcd60e51b81526004016107dc906132fe565b6113ff84848484612050565b50505050565b61140d611b67565b6001600160a01b031661141f84610c1e565b6001600160a01b0316146114455760405162461bcd60e51b81526004016107dc906130ff565b8181600a858154811061146857634e487b7160e01b600052603260045260246000fd5b906000526020600020906003020160010191906113ff929190612599565b606061149182611b4a565b6114ad5760405162461bcd60e51b81526004016107dc90613237565b60006114b7612083565b905060008151116114d75760405180602001604052806000815250610fb1565b806114e184612092565b6040516020016114f2929190612c2b565b604051602081830303815290604052915050919050565b60085460408201518251600092839263ffffffff9091169161152b919061343f565b63ffffffff161115801561156e5750600854640100000000900463ffffffff1683600360200201518460016020020151611565919061343f565b63ffffffff1611155b61157757600080fd5b60005b600a5481101561163a57611618600a82815481106115a857634e487b7160e01b600052603260045260246000fd5b600091825260209091206040805160808101909152916003020160048282826020028201916000905b82829054906101000a900463ffffffff1663ffffffff16815260200190600401906020826003010492830192600103820291508084116115d15790505050505050856121ac565b1561162857915060009050611644565b8061163281613694565b91505061157a565b5060006001915091505b915091565b600854600160401b900463ffffffff1681565b60408051608081019182905260009182916116c4918591906007906004908287855b82829054906101000a900463ffffffff1663ffffffff168152602001906004019060208260030104928301926001038202915080841161167e579050505050505061097e565b6040805160808101918290526006805463ffffffff908116835293909316935060009261170b928792919060049082826020860180841161167e579050505050505061097e565b63ffffffff16905060008460036020020151856002602002015161172f9190613593565b63ffffffff169050600061174383836135ff565b611754906601c6bf52634000613574565b61175e85856135ff565b61176f90662386f26fc10000613574565b6117818667016345785d8a0000613574565b61178b9190613427565b6117959190613427565b9695505050505050565b6001600160a01b03918216600090815260056020908152604080832093909416825291909152205460ff1690565b60005b838110156113bf57600a8383838181106117fa57634e487b7160e01b600052603260045260246000fd5b905060200201358154811061181f57634e487b7160e01b600052603260045260246000fd5b60009182526020909120600260039092020101546001600160401b0316600a86868481811061185e57634e487b7160e01b600052603260045260246000fd5b905060200201358154811061188357634e487b7160e01b600052603260045260246000fd5b60009182526020909120600260039092020101546001600160401b0316118015611a125750611a12600a8686848181106118cd57634e487b7160e01b600052603260045260246000fd5b90506020020135815481106118f257634e487b7160e01b600052603260045260246000fd5b600091825260209091206040805160808101909152916003020160048282826020028201916000905b82829054906101000a900463ffffffff1663ffffffff168152602001906004019060208260030104928301926001038202915080841161191b5790505050505050600a85858581811061197e57634e487b7160e01b600052603260045260246000fd5b90506020020135815481106119a357634e487b7160e01b600052603260045260246000fd5b600091825260209091206040805160808101909152916003020160048282826020028201916000905b82829054906101000a900463ffffffff1663ffffffff16815260200190600401906020826003010492830192600103820291508084116119cc57905050505050506121ac565b611a2e5760405162461bcd60e51b81526004016107dc906130c8565b600a858583818110611a5057634e487b7160e01b600052603260045260246000fd5b9050602002013581548110611a7557634e487b7160e01b600052603260045260246000fd5b60009182526020822060039091020190611a8f828261260d565b611a9d600183016000612614565b50600201805467ffffffffffffffff19169055600b6000868684818110611ad457634e487b7160e01b600052603260045260246000fd5b60209081029290920135835250810191909152604001600090812055611b1f858583818110611b1357634e487b7160e01b600052603260045260246000fd5b90506020020135612271565b80611b2981613694565b9150506117d0565b6001600160e01b031981166301ffc9a760e01b14919050565b6000908152600260205260409020546001600160a01b0316151590565b3390565b600081815260046020526040902080546001600160a01b0319166001600160a01b0384169081179091558190611ba082610c1e565b6001600160a01b03167f8c5be1e5ebec7d5bd14f71427d1e84f3dd0314c0f7b2291e5b200ac8c7c3b92560405160405180910390a45050565b6000611be482611b4a565b611c005760405162461bcd60e51b81526004016107dc90612f39565b6000611c0b83610c1e565b9050806001600160a01b0316846001600160a01b03161480611c465750836001600160a01b0316611c3b846107b5565b6001600160a01b0316145b80611c565750611c56818561179f565b949350505050565b826001600160a01b0316611c7182610c1e565b6001600160a01b031614611c975760405162461bcd60e51b81526004016107dc906131b7565b6001600160a01b038216611cbd5760405162461bcd60e51b81526004016107dc90612e38565b611cc8838383610894565b611cd3600082611b6b565b6001600160a01b0383166000908152600360205260408120805460019290611cfc9084906135ff565b90915550506001600160a01b0382166000908152600360205260408120805460019290611d2a908490613427565b909155505060008181526002602052604080822080546001600160a01b0319166001600160a01b0386811691821790925591518493918716917fddf252ad1be2c89b69c2b068fc378daa952ba7f163c4a11628f55a4df523b3ef91a4505050565b60008160030b8360030b1215611da15781610fb1565b5090919050565b60008160030b8360030b1315611da15781610fb1565b6000838383604051602001611dd593929190612bd5565b60408051601f1981840301815291815281516020928301206000818152600c90935291205490915080611e1a5760405162461bcd60e51b81526004016107dc90612ee8565b438110611e395760405162461bcd60e51b81526004016107dc90613375565b600a54611e47575050610894565b600a54600090611e59906001906135ff565b90505b81600a8281548110611e7e57634e487b7160e01b600052603260045260246000fd5b60009182526020909120600260039092020101546001600160401b03161015611ea657611f69565b611f3a600a8281548110611eca57634e487b7160e01b600052603260045260246000fd5b600091825260209091206040805160808101909152916003020160048282826020028201916000905b82829054906101000a900463ffffffff1663ffffffff1681526020019060040190602082600301049283019260010382029150808411611ef35790505050505050876121ac565b15611f575760405162461bcd60e51b81526004016107dc906132c7565b80611f6181613642565b915050611e5c565b505050505050565b6001600160a01b038216611f975760405162461bcd60e51b81526004016107dc90613136565b611fa081611b4a565b15611fbd5760405162461bcd60e51b81526004016107dc90612da8565b611fc960008383610894565b6001600160a01b0382166000908152600360205260408120805460019290611ff2908490613427565b909155505060008181526002602052604080822080546001600160a01b0319166001600160a01b03861690811790915590518392907fddf252ad1be2c89b69c2b068fc378daa952ba7f163c4a11628f55a4df523b3ef908290a45050565b61205b848484611c5e565b61206784848484612318565b6113ff5760405162461bcd60e51b81526004016107dc90612d56565b60606009805461073290613659565b6060816120b757506040805180820190915260018152600360fc1b602082015261071e565b8160005b81156120e157806120cb81613694565b91506120da9050600a83613484565b91506120bb565b6000816001600160401b0381111561210957634e487b7160e01b600052604160045260246000fd5b6040519080825280601f01601f191660200182016040528015612133576020820181803683370190505b5090505b8415611c56576121486001836135ff565b9150612155600a866136af565b612160906030613427565b60f81b81838151811061218357634e487b7160e01b600052603260045260246000fd5b60200101906001600160f81b031916908160001a9053506121a5600a86613484565b9450612137565b604081015181516000916121bf9161343f565b835163ffffffff91821691161015806121f35750604083015183516121e4919061343f565b825163ffffffff918216911610155b1561220057506000610a2d565b60608201516020830151612214919061343f565b63ffffffff16836001602002015163ffffffff1610158061225b575060608301516020840151612244919061343f565b63ffffffff16826001602002015163ffffffff1610155b1561226857506000610a2d565b50600192915050565b600061227c82610c1e565b905061228a81600084610894565b612295600083611b6b565b6001600160a01b03811660009081526003602052604081208054600192906122be9084906135ff565b909155505060008281526002602052604080822080546001600160a01b0319169055518391906001600160a01b038416907fddf252ad1be2c89b69c2b068fc378daa952ba7f163c4a11628f55a4df523b3ef908390a45050565b600061232c846001600160a01b0316612433565b1561242857836001600160a01b031663150b7a02612348611b67565b8786866040518563ffffffff1660e01b815260040161236a9493929190612c6e565b602060405180830381600087803b15801561238457600080fd5b505af19250505080156123b4575060408051601f3d908101601f191682019092526123b191810190612a94565b60015b61240e573d8080156123e2576040519150601f19603f3d011682016040523d82523d6000602084013e6123e7565b606091505b5080516124065760405162461bcd60e51b81526004016107dc90612d56565b805181602001fd5b6001600160e01b031916630a85bd0160e11b149050611c56565b506001949350505050565b3b151590565b82805461244590613659565b90600052602060002090601f01602090048101928261246757600085556124ad565b82601f1061248057805160ff19168380011785556124ad565b828001600101855582156124ad579182015b828111156124ad578251825591602001919060010190612492565b506124b9929150612653565b5090565b60405180606001604052806124d061257b565b815260606020820152600060409091015290565b6001830191839082156124ad5791602002820160005b8382111561253e57835183826101000a81548163ffffffff021916908363ffffffff16021790555092602001926004016020816003010492830192600103026124fa565b801561256e5782816101000a81549063ffffffff021916905560040160208160030104928301926001030261253e565b50506124b9929150612653565b60405180608001604052806004906020820280368337509192915050565b8280546125a590613659565b90600052602060002090601f0160209004810192826125c757600085556124ad565b82601f106125e05782800160ff198235161785556124ad565b828001600101855582156124ad579182015b828111156124ad5782358255916020019190600101906125f2565b5060009055565b50805461262090613659565b6000825580601f106126325750612650565b601f0160209004906000526020600020908101906126509190612653565b50565b5b808211156124b95760008155600101612654565b60006001600160401b0380841115612682576126826136ef565b604051601f8501601f1916810160200182811182821017156126a6576126a66136ef565b6040528481529150818385018610156126be57600080fd5b8484602083013760006020868301015250509392505050565b80356001600160a01b038116811461071e57600080fd5b60008083601f8401126126ff578182fd5b5081356001600160401b03811115612715578182fd5b602083019150836020808302850101111561272f57600080fd5b9250929050565b600082601f830112612746578081fd5b604051608081018181106001600160401b0382111715612768576127686136ef565b60405280836080810186101561277c578384fd5b835b60048110156127a557612790826127ef565b8352602092830192919091019060010161277e565b509195945050505050565b60008083601f8401126127c1578182fd5b5081356001600160401b038111156127d7578182fd5b60208301915083602082850101111561272f57600080fd5b803563ffffffff8116811461071e57600080fd5b600060208284031215612814578081fd5b610fb1826126d7565b6000806040838503121561282f578081fd5b612838836126d7565b9150612846602084016126d7565b90509250929050565b600080600060608486031215612863578081fd5b61286c846126d7565b925061287a602085016126d7565b9150604084013590509250925092565b6000806000806080858703121561289f578081fd5b6128a8856126d7565b93506128b6602086016126d7565b92506040850135915060608501356001600160401b038111156128d7578182fd5b8501601f810187136128e7578182fd5b6128f687823560208401612668565b91505092959194509250565b60008060408385031215612914578182fd5b61291d836126d7565b915060208301358015158114612931578182fd5b809150509250929050565b6000806040838503121561294e578182fd5b612957836126d7565b946020939093013593505050565b6000806000806040858703121561297a578384fd5b84356001600160401b0380821115612990578586fd5b61299c888389016126ee565b909650945060208701359150808211156129b4578384fd5b506129c1878288016126ee565b95989497509550505050565b6000608082840312156129de578081fd5b610fb18383612736565b60008061010083850312156129fb578182fd5b612a058484612736565b91506128468460808501612736565b60008060008060c08587031215612a29578182fd5b612a338686612736565b93506080850135925060a08501356001600160401b03811115612a54578283fd5b6129c1878288016127b0565b600060208284031215612a71578081fd5b5035919050565b600060208284031215612a89578081fd5b8135610fb181613705565b600060208284031215612aa5578081fd5b8151610fb181613705565b600060208284031215612ac1578081fd5b81356001600160401b03811115612ad6578182fd5b8201601f81018413612ae6578182fd5b611c5684823560208401612668565b600080600060408486031215612b09578081fd5b8335925060208401356001600160401b03811115612b25578182fd5b612b31868287016127b0565b9497909650939450505050565b600080600060608486031215612b52578081fd5b8335925060208401356001600160801b0381168114612b6f578182fd5b9150604084013560ff81168114612b84578182fd5b809150509250925092565b600060208284031215612ba0578081fd5b610fb1826127ef565b60008151808452612bc1816020860160208601613616565b601f01601f19169290920160200192915050565b60008185825b6004811015612c0057815163ffffffff16835260209283019290910190600101612bdb565b50505050608081019290925260601b6bffffffffffffffffffffffff191660a082015260b401919050565b60008351612c3d818460208801613616565b835190830190612c51818360208801613616565b01949350505050565b6001600160a01b0391909116815260200190565b6001600160a01b038581168252841660208201526040810183905260806060820181905260009061179590830184612ba9565b60808101818360005b6004811015612ccf57815163ffffffff16835260209283019290910190600101612caa565b50505092915050565b901515815260200190565b600060208252610fb16020830184612ba9565b600060408252612d096040830185612ba9565b90506001600160401b03831660208301529392505050565b6020808252818101527f6f6e6c792063726561746f722063616e20736574206e65772062617365555249604082015260600190565b60208082526032908201527f4552433732313a207472616e7366657220746f206e6f6e20455243373231526560408201527131b2b4bb32b91034b6b83632b6b2b73a32b960711b606082015260800190565b6020808252601c908201527f4552433732313a20746f6b656e20616c7265616479206d696e74656400000000604082015260600190565b6020808252601390820152721bdb9b1e481bdddb995c8818d85b881cd95b1b606a1b604082015260600190565b60208082526012908201527163616e206f6e6c79206c6f7765722066656560701b604082015260600190565b60208082526024908201527f4552433732313a207472616e7366657220746f20746865207a65726f206164646040820152637265737360e01b606082015260800190565b60208082526019908201527f4552433732313a20617070726f766520746f2063616c6c657200000000000000604082015260600190565b6020808252818101527f6f6e6c792063726561746f722063616e20736574206e65772063726561746f72604082015260600190565b6020808252600e908201526d18dbdb5b5a5d081b9bdd081cd95d60921b604082015260600190565b6020808252600f908201526e7061796d656e7420746f6f206c6f7760881b604082015260600190565b6020808252602c908201527f4552433732313a206f70657261746f7220717565727920666f72206e6f6e657860408201526b34b9ba32b73a103a37b5b2b760a11b606082015260800190565b6020808252600d908201526c6f7574206f6620626f756e647360981b604082015260600190565b60208082526038908201527f4552433732313a20617070726f76652063616c6c6572206973206e6f74206f7760408201527f6e6572206e6f7220617070726f76656420666f7220616c6c0000000000000000606082015260800190565b6020808252602a908201527f4552433732313a2062616c616e636520717565727920666f7220746865207a65604082015269726f206164647265737360b01b606082015260800190565b60208082526029908201527f4552433732313a206f776e657220717565727920666f72206e6f6e657869737460408201526832b73a103a37b5b2b760b91b606082015260800190565b60208082526012908201527118dbdb5b5a5d08185b1c9958591e481cd95d60721b604082015260600190565b6020808252601c908201527f6e6f74206e65776572206f72206e6f74206f7665726c617070696e6700000000604082015260600190565b60208082526017908201527f6f6e6c79206f776e65722063616e207365742069706673000000000000000000604082015260600190565b6020808252818101527f4552433732313a206d696e7420746f20746865207a65726f2061646472657373604082015260600190565b6020808252602c908201527f4552433732313a20617070726f76656420717565727920666f72206e6f6e657860408201526b34b9ba32b73a103a37b5b2b760a11b606082015260800190565b60208082526029908201527f4552433732313a207472616e73666572206f6620746f6b656e2074686174206960408201526839903737ba1037bbb760b91b606082015260800190565b60208082526017908201527f506978656c733a20696e76616c6964207061796d656e74000000000000000000604082015260600190565b6020808252602f908201527f4552433732314d657461646174613a2055524920717565727920666f72206e6f60408201526e3732bc34b9ba32b73a103a37b5b2b760891b606082015260800190565b60208082526021908201527f4552433732313a20617070726f76616c20746f2063757272656e74206f776e656040820152603960f91b606082015260800190565b6020808252601e908201527f627579206661696c65642e20696e74657273656374696f6e20666f756e640000604082015260600190565b60208082526031908201527f4552433732313a207472616e736665722063616c6c6572206973206e6f74206f6040820152701ddb995c881b9bdc88185c1c1c9bdd9959607a1b606082015260800190565b6020808252600c908201526b6e6f7420666f722073616c6560a01b604082015260600190565b60208082526017908201527f636f6d6d69742061742063757272656e7420626c6f636b000000000000000000604082015260600190565b6020808252601c908201527f6f6e6c792063726561746f722063616e20736574206e65772066656500000000604082015260600190565b6001600160801b0392831681529116602082015260400190565b90815260200190565b9182521515602082015260400190565b63ffffffff91909116815260200190565b6000821982111561343a5761343a6136c3565b500190565b600063ffffffff808316818516808303821115612c5157612c516136c3565b60006001600160801b0380841680613478576134786136d9565b92169190910492915050565b600082613493576134936136d9565b500490565b60008160030b8360030b637fffffff838213848413838304851182821616156134c3576134c36136c3565b637fffffff19868512828116878305871216156134e2576134e26136c3565b8787129250858205871284841616156134fd576134fd6136c3565b85850587128184161615613513576135136136c3565b5050509290910295945050505050565b60006001600160801b0380831681851681830481118215151615613549576135496136c3565b02949350505050565b600062ffffff80831681851681830481118215151615613549576135496136c3565b600081600019048311821515161561358e5761358e6136c3565b500290565b600063ffffffff80831681851681830481118215151615613549576135496136c3565b60008160030b8360030b82811281637fffffff19018312811516156135dd576135dd6136c3565b81637fffffff0183138116156135f5576135f56136c3565b5090039392505050565b600082821015613611576136116136c3565b500390565b60005b83811015613631578181015183820152602001613619565b838111156113ff5750506000910152565b600081613651576136516136c3565b506000190190565b60028104600182168061366d57607f821691505b6020821081141561368e57634e487b7160e01b600052602260045260246000fd5b50919050565b60006000198214156136a8576136a86136c3565b5060010190565b6000826136be576136be6136d9565b500690565b634e487b7160e01b600052601160045260246000fd5b634e487b7160e01b600052601260045260246000fd5b634e487b7160e01b600052604160045260246000fd5b6001600160e01b03198116811461265057600080fdfea2646970667358221220ac17013438b9fd4dc76d7143256ce8011f678d635b6c7933a6ec5a1ae561427564736f6c63430008000033",
  "linkReferences": {},
  "deployedLinkReferences": {}
}