{
  "_format": "hh-sol-artifact-1",
  "contractName": "Pixels",
  "sourceName": "contracts/Pixels.sol",
  "abi": [
    {
      "inputs": [
        {
          "internalType": "string",
          "name": "_baseuri",
          "type": "string"
        },
        {
          "internalType": "address",
          "name": "_vault",
          "type": "address"
        },
        {
          "internalType": "uint32",
          "name": "_medAreaSize",
          "type": "uint32"
        },
        {
          "internalType": "uint32",
          "name": "_topAreaSize",
          "type": "uint32"
        }
      ],
      "stateMutability": "nonpayable",
      "type": "constructor"
    },
    {
      "anonymous": false,
      "inputs": [
        {
          "indexed": true,
          "internalType": "address",
          "name": "owner",
          "type": "address"
        },
        {
          "indexed": true,
          "internalType": "address",
          "name": "approved",
          "type": "address"
        },
        {
          "indexed": true,
          "internalType": "uint256",
          "name": "tokenId",
          "type": "uint256"
        }
      ],
      "name": "Approval",
      "type": "event"
    },
    {
      "anonymous": false,
      "inputs": [
        {
          "indexed": true,
          "internalType": "address",
          "name": "owner",
          "type": "address"
        },
        {
          "indexed": true,
          "internalType": "address",
          "name": "operator",
          "type": "address"
        },
        {
          "indexed": false,
          "internalType": "bool",
          "name": "approved",
          "type": "bool"
        }
      ],
      "name": "ApprovalForAll",
      "type": "event"
    },
    {
      "anonymous": false,
      "inputs": [
        {
          "indexed": true,
          "internalType": "address",
          "name": "from",
          "type": "address"
        },
        {
          "indexed": true,
          "internalType": "address",
          "name": "to",
          "type": "address"
        },
        {
          "indexed": true,
          "internalType": "uint256",
          "name": "tokenId",
          "type": "uint256"
        }
      ],
      "name": "Transfer",
      "type": "event"
    },
    {
      "inputs": [
        {
          "internalType": "uint256",
          "name": "",
          "type": "uint256"
        }
      ],
      "name": "MEDIUM",
      "outputs": [
        {
          "internalType": "uint32",
          "name": "",
          "type": "uint32"
        }
      ],
      "stateMutability": "view",
      "type": "function"
    },
    {
      "inputs": [
        {
          "internalType": "uint256",
          "name": "",
          "type": "uint256"
        }
      ],
      "name": "TOP",
      "outputs": [
        {
          "internalType": "uint32",
          "name": "",
          "type": "uint32"
        }
      ],
      "stateMutability": "view",
      "type": "function"
    },
    {
      "inputs": [
        {
          "internalType": "address",
          "name": "to",
          "type": "address"
        },
        {
          "internalType": "uint256",
          "name": "tokenId",
          "type": "uint256"
        }
      ],
      "name": "approve",
      "outputs": [],
      "stateMutability": "nonpayable",
      "type": "function"
    },
    {
      "inputs": [
        {
          "internalType": "uint256",
          "name": "",
          "type": "uint256"
        }
      ],
      "name": "areas",
      "outputs": [
        {
          "internalType": "string",
          "name": "ipfs",
          "type": "string"
        },
        {
          "internalType": "uint64",
          "name": "mintedAtBlock",
          "type": "uint64"
        }
      ],
      "stateMutability": "view",
      "type": "function"
    },
    {
      "inputs": [
        {
          "internalType": "address",
          "name": "owner",
          "type": "address"
        }
      ],
      "name": "balanceOf",
      "outputs": [
        {
          "internalType": "uint256",
          "name": "",
          "type": "uint256"
        }
      ],
      "stateMutability": "view",
      "type": "function"
    },
    {
      "inputs": [],
      "name": "baseURI",
      "outputs": [
        {
          "internalType": "string",
          "name": "",
          "type": "string"
        }
      ],
      "stateMutability": "view",
      "type": "function"
    },
    {
      "inputs": [
        {
          "internalType": "uint256",
          "name": "id",
          "type": "uint256"
        },
        {
          "internalType": "string",
          "name": "ipfsHash",
          "type": "string"
        }
      ],
      "name": "buy",
      "outputs": [],
      "stateMutability": "payable",
      "type": "function"
    },
    {
      "inputs": [
        {
          "internalType": "uint32[4]",
          "name": "area",
          "type": "uint32[4]"
        },
        {
          "internalType": "string",
          "name": "ipfs",
          "type": "string"
        }
      ],
      "name": "buyPixels",
      "outputs": [],
      "stateMutability": "payable",
      "type": "function"
    },
    {
      "inputs": [
        {
          "internalType": "bytes32",
          "name": "areaHash",
          "type": "bytes32"
        }
      ],
      "name": "commitToPixels",
      "outputs": [],
      "stateMutability": "nonpayable",
      "type": "function"
    },
    {
      "inputs": [
        {
          "internalType": "bytes32",
          "name": "",
          "type": "bytes32"
        }
      ],
      "name": "commits",
      "outputs": [
        {
          "internalType": "uint256",
          "name": "",
          "type": "uint256"
        }
      ],
      "stateMutability": "view",
      "type": "function"
    },
    {
      "inputs": [],
      "name": "fee",
      "outputs": [
        {
          "internalType": "uint32",
          "name": "",
          "type": "uint32"
        }
      ],
      "stateMutability": "view",
      "type": "function"
    },
    {
      "inputs": [
        {
          "internalType": "uint256",
          "name": "",
          "type": "uint256"
        }
      ],
      "name": "forSale",
      "outputs": [
        {
          "internalType": "uint128",
          "name": "price",
          "type": "uint128"
        },
        {
          "internalType": "uint128",
          "name": "end",
          "type": "uint128"
        }
      ],
      "stateMutability": "view",
      "type": "function"
    },
    {
      "inputs": [
        {
          "internalType": "uint256",
          "name": "tokenId",
          "type": "uint256"
        }
      ],
      "name": "getApproved",
      "outputs": [
        {
          "internalType": "address",
          "name": "",
          "type": "address"
        }
      ],
      "stateMutability": "view",
      "type": "function"
    },
    {
      "inputs": [],
      "name": "getAreasCount",
      "outputs": [
        {
          "internalType": "uint256",
          "name": "",
          "type": "uint256"
        }
      ],
      "stateMutability": "view",
      "type": "function"
    },
    {
      "inputs": [
        {
          "internalType": "uint256",
          "name": "id",
          "type": "uint256"
        }
      ],
      "name": "getBounds",
      "outputs": [
        {
          "internalType": "uint32[4]",
          "name": "",
          "type": "uint32[4]"
        }
      ],
      "stateMutability": "view",
      "type": "function"
    },
    {
      "inputs": [],
      "name": "height",
      "outputs": [
        {
          "internalType": "uint32",
          "name": "",
          "type": "uint32"
        }
      ],
      "stateMutability": "view",
      "type": "function"
    },
    {
      "inputs": [
        {
          "internalType": "address",
          "name": "owner",
          "type": "address"
        },
        {
          "internalType": "address",
          "name": "operator",
          "type": "address"
        }
      ],
      "name": "isApprovedForAll",
      "outputs": [
        {
          "internalType": "bool",
          "name": "",
          "type": "bool"
        }
      ],
      "stateMutability": "view",
      "type": "function"
    },
    {
      "inputs": [
        {
          "internalType": "uint32[4]",
          "name": "area",
          "type": "uint32[4]"
        }
      ],
      "name": "isAreaAvailable",
      "outputs": [
        {
          "internalType": "uint256",
          "name": "",
          "type": "uint256"
        },
        {
          "internalType": "bool",
          "name": "",
          "type": "bool"
        }
      ],
      "stateMutability": "view",
      "type": "function"
    },
    {
      "inputs": [
        {
          "internalType": "uint256",
          "name": "id",
          "type": "uint256"
        }
      ],
      "name": "isForSale",
      "outputs": [
        {
          "internalType": "bool",
          "name": "",
          "type": "bool"
        }
      ],
      "stateMutability": "view",
      "type": "function"
    },
    {
      "inputs": [],
      "name": "name",
      "outputs": [
        {
          "internalType": "string",
          "name": "",
          "type": "string"
        }
      ],
      "stateMutability": "view",
      "type": "function"
    },
    {
      "inputs": [
        {
          "internalType": "uint32[4]",
          "name": "obj1",
          "type": "uint32[4]"
        },
        {
          "internalType": "uint32[4]",
          "name": "obj2",
          "type": "uint32[4]"
        }
      ],
      "name": "overlap",
      "outputs": [
        {
          "internalType": "uint32",
          "name": "",
          "type": "uint32"
        }
      ],
      "stateMutability": "pure",
      "type": "function"
    },
    {
      "inputs": [
        {
          "internalType": "uint256",
          "name": "tokenId",
          "type": "uint256"
        }
      ],
      "name": "ownerOf",
      "outputs": [
        {
          "internalType": "address",
          "name": "",
          "type": "address"
        }
      ],
      "stateMutability": "view",
      "type": "function"
    },
    {
      "inputs": [
        {
          "internalType": "uint32[4]",
          "name": "area",
          "type": "uint32[4]"
        }
      ],
      "name": "pixelsCost",
      "outputs": [
        {
          "internalType": "uint256",
          "name": "",
          "type": "uint256"
        }
      ],
      "stateMutability": "view",
      "type": "function"
    },
    {
      "inputs": [
        {
          "internalType": "uint256[]",
          "name": "fraudIndex",
          "type": "uint256[]"
        },
        {
          "internalType": "uint256[]",
          "name": "originalIndex",
          "type": "uint256[]"
        }
      ],
      "name": "removeFraud",
      "outputs": [],
      "stateMutability": "nonpayable",
      "type": "function"
    },
    {
      "inputs": [
        {
          "internalType": "address",
          "name": "from",
          "type": "address"
        },
        {
          "internalType": "address",
          "name": "to",
          "type": "address"
        },
        {
          "internalType": "uint256",
          "name": "tokenId",
          "type": "uint256"
        }
      ],
      "name": "safeTransferFrom",
      "outputs": [],
      "stateMutability": "nonpayable",
      "type": "function"
    },
    {
      "inputs": [
        {
          "internalType": "address",
          "name": "from",
          "type": "address"
        },
        {
          "internalType": "address",
          "name": "to",
          "type": "address"
        },
        {
          "internalType": "uint256",
          "name": "tokenId",
          "type": "uint256"
        },
        {
          "internalType": "bytes",
          "name": "_data",
          "type": "bytes"
        }
      ],
      "name": "safeTransferFrom",
      "outputs": [],
      "stateMutability": "nonpayable",
      "type": "function"
    },
    {
      "inputs": [
        {
          "internalType": "uint256",
          "name": "id",
          "type": "uint256"
        },
        {
          "internalType": "uint128",
          "name": "price",
          "type": "uint128"
        },
        {
          "internalType": "uint8",
          "name": "duration",
          "type": "uint8"
        }
      ],
      "name": "sell",
      "outputs": [],
      "stateMutability": "nonpayable",
      "type": "function"
    },
    {
      "inputs": [
        {
          "internalType": "address",
          "name": "operator",
          "type": "address"
        },
        {
          "internalType": "bool",
          "name": "approved",
          "type": "bool"
        }
      ],
      "name": "setApprovalForAll",
      "outputs": [],
      "stateMutability": "nonpayable",
      "type": "function"
    },
    {
      "inputs": [
        {
          "internalType": "string",
          "name": "_baseuri",
          "type": "string"
        }
      ],
      "name": "setBaseURI",
      "outputs": [],
      "stateMutability": "nonpayable",
      "type": "function"
    },
    {
      "inputs": [
        {
          "internalType": "address",
          "name": "_creator",
          "type": "address"
        }
      ],
      "name": "setCreator",
      "outputs": [],
      "stateMutability": "nonpayable",
      "type": "function"
    },
    {
      "inputs": [
        {
          "internalType": "uint32",
          "name": "_fee",
          "type": "uint32"
        }
      ],
      "name": "setFee",
      "outputs": [],
      "stateMutability": "nonpayable",
      "type": "function"
    },
    {
      "inputs": [
        {
          "internalType": "uint256",
          "name": "id",
          "type": "uint256"
        },
        {
          "internalType": "string",
          "name": "ipfsHash",
          "type": "string"
        }
      ],
      "name": "setIPFSHash",
      "outputs": [],
      "stateMutability": "nonpayable",
      "type": "function"
    },
    {
      "inputs": [
        {
          "internalType": "bytes4",
          "name": "interfaceId",
          "type": "bytes4"
        }
      ],
      "name": "supportsInterface",
      "outputs": [
        {
          "internalType": "bool",
          "name": "",
          "type": "bool"
        }
      ],
      "stateMutability": "view",
      "type": "function"
    },
    {
      "inputs": [],
      "name": "symbol",
      "outputs": [
        {
          "internalType": "string",
          "name": "",
          "type": "string"
        }
      ],
      "stateMutability": "view",
      "type": "function"
    },
    {
      "inputs": [
        {
          "internalType": "uint256",
          "name": "tokenId",
          "type": "uint256"
        }
      ],
      "name": "tokenURI",
      "outputs": [
        {
          "internalType": "string",
          "name": "",
          "type": "string"
        }
      ],
      "stateMutability": "view",
      "type": "function"
    },
    {
      "inputs": [
        {
          "internalType": "address",
          "name": "from",
          "type": "address"
        },
        {
          "internalType": "address",
          "name": "to",
          "type": "address"
        },
        {
          "internalType": "uint256",
          "name": "tokenId",
          "type": "uint256"
        }
      ],
      "name": "transferFrom",
      "outputs": [],
      "stateMutability": "nonpayable",
      "type": "function"
    },
    {
      "inputs": [],
      "name": "width",
      "outputs": [
        {
          "internalType": "uint32",
          "name": "",
          "type": "uint32"
        }
      ],
      "stateMutability": "view",
      "type": "function"
    }
  ],
  "bytecode": "0x6080604052600880546103e863ffffffff199091161763ffffffff60201b19166503e8000000001790553480156200003657600080fd5b5060405162003d8c38038062003d8c833981016040819052620000599162000447565b604080518082018252601481527f4d696c6c696f6e506978656c7347616c6c6572790000000000000000000000006020808301918252835180850190945260038452624d504760e81b908401528151919291620000b991600091620002d6565b508051620000cf906001906020840190620002d6565b50620000dd915050620002d2565b60088054600d80546001600160a01b0319166001600160a01b03888116919091179091556103e86001600160601b039092166c0100000000000000000000000094909116939093029290921763ffffffff19169190911763ffffffff60201b19166503e8000000001763ffffffff60401b19166901770000000000000000179055835162000173906009906020870190620002d6565b5060405180608001604052806002846200018e919062000550565b600854620001a59060029063ffffffff1662000550565b620001b1919062000580565b63ffffffff168152602001620001c960028562000550565b600854620001e890600290640100000000900463ffffffff1662000550565b620001f4919062000580565b63ffffffff90811682528416602082018190526040909101526200021d90600690600462000365565b50604051806080016040528060028362000238919062000550565b6008546200024f9060029063ffffffff1662000550565b6200025b919062000580565b63ffffffff1681526020016200027360028462000550565b6008546200029290600290640100000000900463ffffffff1662000550565b6200029e919062000580565b63ffffffff9081168252831660208201819052604090910152620002c790600790600462000365565b505050505062000605565b3390565b828054620002e490620005b2565b90600052602060002090601f01602090048101928262000308576000855562000353565b82601f106200032357805160ff191683800117855562000353565b8280016001018555821562000353579182015b828111156200035357825182559160200191906001019062000336565b5062000361929150620003fe565b5090565b600183019183908215620003535791602002820160005b83821115620003c257835183826101000a81548163ffffffff021916908363ffffffff16021790555092602001926004016020816003010492830192600103026200037c565b8015620003f45782816101000a81549063ffffffff0219169055600401602081600301049283019260010302620003c2565b5050620003619291505b5b80821115620003615760008155600101620003ff565b80516001600160a01b03811681146200042d57600080fd5b919050565b805163ffffffff811681146200042d57600080fd5b600080600080608085870312156200045d578384fd5b84516001600160401b038082111562000474578586fd5b818701915087601f83011262000488578586fd5b8151818111156200049d576200049d620005ef565b6040516020601f8301601f1916820181018481118382101715620004c557620004c5620005ef565b60405282825284830181018b1015620004dc578889fd5b8893505b82841015620004ff5784840181015182850182015292830192620004e0565b828411156200051057888184840101525b81985062000520818b0162000415565b97505050505050620005356040860162000432565b9150620005456060860162000432565b905092959194509250565b600063ffffffff808416806200057457634e487b7160e01b83526012600452602483fd5b92169190910492915050565b600063ffffffff83811690831681811015620005aa57634e487b7160e01b83526011600452602483fd5b039392505050565b600281046001821680620005c757607f821691505b60208210811415620005e957634e487b7160e01b600052602260045260246000fd5b50919050565b634e487b7160e01b600052604160045260246000fd5b61377780620006156000396000f3fe60806040526004361061021a5760003560e01c806370a0823111610123578063abeff7e2116100ab578063d4ad91791161006f578063d4ad917914610638578063ddca3f4314610666578063e42008601461067b578063e985e9c51461069b578063f68440f9146106bb5761021a565b8063abeff7e2146105b0578063b7dc3b18146105c5578063b88d4fde146105d8578063b963daef146105f8578063c87b56dd146106185761021a565b806395d89b41116100f257806395d89b41146105185780639b2c61251461052d5780639ededf771461055b578063a049c06f14610570578063a22cb465146105905761021a565b806370a082311461048b578063803a2e4a146104ab5780638546d002146104cb5780639230d3b1146104eb5761021a565b80632831f2f4116101a657806342842e0e1161017557806342842e0e146103e9578063478857811461040957806355f804b3146104365780636352211e146104565780636c0360eb146104765761021a565b80632831f2f41461035b5780632bba5a02146103895780632e52210f146103a95780633f516018146103c95761021a565b80630bbd118f116101ed5780630bbd118f146102c65780630ef26743146102d95780631ab971ab146102fb57806323b872dd1461031b578063255342e11461033b5761021a565b806301ffc9a71461021f57806306fdde0314610255578063081812fc14610277578063095ea7b3146102a4575b600080fd5b34801561022b57600080fd5b5061023f61023a366004612aa0565b6106db565b60405161024c9190612cfe565b60405180910390f35b34801561026157600080fd5b5061026a610723565b60405161024c9190612d09565b34801561028357600080fd5b50610297610292366004612a88565b6107b5565b60405161024c9190612c80565b3480156102b057600080fd5b506102c46102bf36600461295f565b610801565b005b6102c46102d4366004612a37565b610899565b3480156102e557600080fd5b506102ee610ac9565b60405161024c919061343c565b34801561030757600080fd5b506102c4610316366004612b9e565b610add565b34801561032757600080fd5b506102c4610336366004612872565b610b76565b34801561034757600080fd5b506102ee610356366004612a0b565b610bae565b34801561036757600080fd5b5061037b610376366004612a88565b610c63565b60405161024c929190613409565b34801561039557600080fd5b506102c46103a4366004612b4d565b610c89565b3480156103b557600080fd5b506102ee6103c4366004612a88565b610d35565b3480156103d557600080fd5b506102c46103e4366004612826565b610d65565b3480156103f557600080fd5b506102c4610404366004612872565b610dce565b34801561041557600080fd5b50610429610424366004612a88565b610de9565b60405161024c9190613423565b34801561044257600080fd5b506102c4610451366004612ad8565b610dfb565b34801561046257600080fd5b50610297610471366004612a88565b610e4e565b34801561048257600080fd5b5061026a610e83565b34801561049757600080fd5b506104296104a6366004612826565b610f11565b3480156104b757600080fd5b506102c46104c6366004612a88565b610f55565b3480156104d757600080fd5b5061023f6104e6366004612a88565b610f94565b3480156104f757600080fd5b5061050b610506366004612a88565b610fee565b60405161024c9190612cc7565b34801561052457600080fd5b5061026a611087565b34801561053957600080fd5b5061054d610548366004612a88565b611096565b60405161024c929190612d1c565b34801561056757600080fd5b506102ee61115b565b34801561057c57600080fd5b506102ee61058b366004612a88565b611167565b34801561059c57600080fd5b506102c46105ab366004612925565b611177565b3480156105bc57600080fd5b50610429611245565b6102c46105d3366004612b1d565b61124b565b3480156105e457600080fd5b506102c46105f33660046128ad565b6113fc565b34801561060457600080fd5b506102c4610613366004612b1d565b61143b565b34801561062457600080fd5b5061026a610633366004612a88565b6114bc565b34801561064457600080fd5b506106586106533660046129f0565b61153f565b60405161024c92919061342c565b34801561067257600080fd5b506102ee61167f565b34801561068757600080fd5b506104296106963660046129f0565b611692565b3480156106a757600080fd5b5061023f6106b6366004612840565b6117d5565b3480156106c757600080fd5b506102c46106d6366004612988565b611803565b60006001600160e01b031982166380ac58cd60e01b148061070c57506001600160e01b03198216635b5e139f60e01b145b8061071b575061071b82611b67565b90505b919050565b6060600080546107329061367f565b80601f016020809104026020016040519081016040528092919081815260200182805461075e9061367f565b80156107ab5780601f10610780576101008083540402835291602001916107ab565b820191906000526020600020905b81548152906001019060200180831161078e57829003601f168201915b5050505050905090565b60006107c082611b80565b6107e55760405162461bcd60e51b81526004016107dc90613191565b60405180910390fd5b506000908152600460205260409020546001600160a01b031690565b600061080c82610e4e565b9050806001600160a01b0316836001600160a01b031614156108405760405162461bcd60e51b81526004016107dc906132ac565b806001600160a01b0316610852611b9d565b6001600160a01b0316148061086e575061086e816106b6611b9d565b61088a5760405162461bcd60e51b81526004016107dc90612fd2565b6108948383611ba1565b505050565b6008546040840151845163ffffffff909216916108b69190613465565b63ffffffff16111580156108f95750600854640100000000900463ffffffff16836003602002015184600160200201516108f09190613465565b63ffffffff1611155b6109155760405162461bcd60e51b81526004016107dc90612fab565b61095e8383838080601f0160208091040260200160405190810160405280939291908181526020018383808284376000920191909152506109599250611b9d915050565b611c0f565b600061096984611692565b90503481111561098b5760405162461bcd60e51b81526004016107dc90613226565b610993612467565b8481526001600160401b03431660408083019190915280516020601f8601819004810282018101909252848152908590859081908401838280828437600092018290525060208601949094525050600a8054600181018255925250815182916003027fc65a7bb8d6351c1cf70c95a316cc6a92839c986682d98bc35f958f4883f9d2a80190610a25908290600461248e565b506020828101518051610a3e926001850192019061252a565b50604091909101516002909101805467ffffffffffffffff19166001600160401b03909216919091179055610a88610a74611b9d565b600a54610a8390600190613625565b611dba565b600d546040516001600160a01b03909116903480156108fc02916000818181858888f19350505050158015610ac1573d6000803e3d6000fd5b505050505050565b600854640100000000900463ffffffff1681565b610ae5611b9d565b600854600160601b90046001600160a01b03908116911614610b195760405162461bcd60e51b81526004016107dc906133d2565b60085463ffffffff600160401b909104811690821610610b4b5760405162461bcd60e51b81526004016107dc90612e32565b6008805463ffffffff909216600160401b026bffffffff000000000000000019909216919091179055565b610b87610b81611b9d565b82611e99565b610ba35760405162461bcd60e51b81526004016107dc90613324565b610894838383611f1e565b600080610c0d81610bcd868260200201518660005b602002015161204b565b60408701518751610bfe91610be191613465565b60408801518860005b6020020151610bf99190613465565b612068565b610c0891906135dc565b61204b565b90506000610c4c81610c288760016020020151876001610bc3565b60608801516020890151610bfe91610c3f91613465565b6060890151896001610bea565b9050610c5881836134be565b925050505b92915050565b600b602052600090815260409020546001600160801b0380821691600160801b90041682565b610c91611b9d565b6001600160a01b0316610ca384610e4e565b6001600160a01b031614610cc95760405162461bcd60e51b81526004016107dc90612e05565b6000838152600b6020526040902080546fffffffffffffffffffffffffffffffff19166001600160801b038416178155610d0960ff831662015180613578565b610d189062ffffff164261344d565b81546001600160801b03918216600160801b029116179055505050565b60078160048110610d4557600080fd5b60089182820401919006600402915054906101000a900463ffffffff1681565b610d6d611b9d565b600854600160601b90046001600160a01b03908116911614610da15760405162461bcd60e51b81526004016107dc90612ed9565b600880546001600160a01b03909216600160601b026bffffffffffffffffffffffff909216919091179055565b610894838383604051806020016040528060008152506113fc565b600c6020526000908152604090205481565b610e03611b9d565b600854600160601b90046001600160a01b03908116911614610e375760405162461bcd60e51b81526004016107dc90612d47565b8051610e4a90600990602084019061252a565b5050565b6000818152600260205260408120546001600160a01b03168061071b5760405162461bcd60e51b81526004016107dc90613079565b60098054610e909061367f565b80601f0160208091040260200160405190810160405280929190818152602001828054610ebc9061367f565b8015610f095780601f10610ede57610100808354040283529160200191610f09565b820191906000526020600020905b815481529060010190602001808311610eec57829003601f168201915b505050505081565b60006001600160a01b038216610f395760405162461bcd60e51b81526004016107dc9061302f565b506001600160a01b031660009081526003602052604090205490565b6000818152600c602052604090205415610f815760405162461bcd60e51b81526004016107dc906130c2565b6000908152600c60205260409020439055565b6000818152600b602090815260408083208151808301909252546001600160801b03808216808452600160801b90920416928201929092529015801590610fe757504281602001516001600160801b0316115b9392505050565b610ff661259e565b600a828154811061101757634e487b7160e01b600052603260045260246000fd5b600091825260209091206040805160808101909152916003020160048282826020028201916000905b82829054906101000a900463ffffffff1663ffffffff1681526020019060040190602082600301049283019260010382029150808411611040575094979650505050505050565b6060600180546107329061367f565b600a81815481106110a657600080fd5b90600052602060002090600302016000915090508060010180546110c99061367f565b80601f01602080910402602001604051908101604052809291908181526020018280546110f59061367f565b80156111425780601f1061111757610100808354040283529160200191611142565b820191906000526020600020905b81548152906001019060200180831161112557829003601f168201915b505050600290930154919250506001600160401b031682565b60085463ffffffff1681565b60068160048110610d4557600080fd5b61117f611b9d565b6001600160a01b0316826001600160a01b031614156111b05760405162461bcd60e51b81526004016107dc90612ea2565b80600560006111bd611b9d565b6001600160a01b03908116825260208083019390935260409182016000908120918716808252919093529120805460ff191692151592909217909155611201611b9d565b6001600160a01b03167f17307eab39ab6107e8899845ad3d59bd9653f200f220920489ca2b5937696c31836040516112399190612cfe565b60405180910390a35050565b600a5490565b6000838152600b60209081526040918290208251808401909352546001600160801b038082168452600160801b909104169082015261128984610f94565b6112a55760405162461bcd60e51b81526004016107dc90613375565b80516001600160801b03163410156112cf5760405162461bcd60e51b81526004016107dc90612f36565b6008548151600091612710916112f291600160401b900463ffffffff1690613549565b6112fc9190613484565b6001600160801b031690508383600a878154811061132a57634e487b7160e01b600052603260045260246000fd5b906000526020600020906003020160010191906113489291906125bc565b506000858152600b602052604081205561136185610e4e565b6001600160a01b03166108fc6113778334613625565b6040518115909202916000818181858888f1935050505015801561139f573d6000803e3d6000fd5b50600d546040516001600160a01b039091169082156108fc029083906000818181858888f193505050501580156113da573d6000803e3d6000fd5b506113f56113e786610e4e565b6113ef611b9d565b87611f1e565b5050505050565b61140d611407611b9d565b83611e99565b6114295760405162461bcd60e51b81526004016107dc90613324565b6114358484848461207e565b50505050565b611443611b9d565b6001600160a01b031661145584610e4e565b6001600160a01b03161461147b5760405162461bcd60e51b81526004016107dc90613125565b8181600a858154811061149e57634e487b7160e01b600052603260045260246000fd5b906000526020600020906003020160010191906114359291906125bc565b60606114c782611b80565b6114e35760405162461bcd60e51b81526004016107dc9061325d565b60006114ed6120b1565b9050600081511161150d5760405180602001604052806000815250610fe7565b80611517846120c0565b604051602001611528929190612c51565b604051602081830303815290604052915050919050565b60085460408201518251600092839263ffffffff909116916115619190613465565b63ffffffff16111580156115a45750600854640100000000900463ffffffff168360036020020151846001602002015161159b9190613465565b63ffffffff1611155b6115ad57600080fd5b60005b600a548110156116705761164e600a82815481106115de57634e487b7160e01b600052603260045260246000fd5b600091825260209091206040805160808101909152916003020160048282826020028201916000905b82829054906101000a900463ffffffff1663ffffffff16815260200190600401906020826003010492830192600103820291508084116116075790505050505050856121da565b1561165e5791506000905061167a565b80611668816136ba565b9150506115b0565b5060006001915091505b915091565b600854600160401b900463ffffffff1681565b60408051608081019182905260009182916116fa918591906007906004908287855b82829054906101000a900463ffffffff1663ffffffff16815260200190600401906020826003010492830192600103820291508084116116b45790505050505050610bae565b6040805160808101918290526006805463ffffffff908116835293909316935060009261174192879291906004908282602086018084116116b45790505050505050610bae565b63ffffffff16905060008460036020020151856002602002015161176591906135b9565b63ffffffff16905060006117798383613625565b61178a9066038d7ea4c6800061359a565b6117948585613625565b6117a590662386f26fc1000061359a565b6117b78667016345785d8a000061359a565b6117c1919061344d565b6117cb919061344d565b9695505050505050565b6001600160a01b03918216600090815260056020908152604080832093909416825291909152205460ff1690565b60005b838110156113f557600a83838381811061183057634e487b7160e01b600052603260045260246000fd5b905060200201358154811061185557634e487b7160e01b600052603260045260246000fd5b60009182526020909120600260039092020101546001600160401b0316600a86868481811061189457634e487b7160e01b600052603260045260246000fd5b90506020020135815481106118b957634e487b7160e01b600052603260045260246000fd5b60009182526020909120600260039092020101546001600160401b0316118015611a485750611a48600a86868481811061190357634e487b7160e01b600052603260045260246000fd5b905060200201358154811061192857634e487b7160e01b600052603260045260246000fd5b600091825260209091206040805160808101909152916003020160048282826020028201916000905b82829054906101000a900463ffffffff1663ffffffff16815260200190600401906020826003010492830192600103820291508084116119515790505050505050600a8585858181106119b457634e487b7160e01b600052603260045260246000fd5b90506020020135815481106119d957634e487b7160e01b600052603260045260246000fd5b600091825260209091206040805160808101909152916003020160048282826020028201916000905b82829054906101000a900463ffffffff1663ffffffff1681526020019060040190602082600301049283019260010382029150808411611a0257905050505050506121da565b611a645760405162461bcd60e51b81526004016107dc906130ee565b600a858583818110611a8657634e487b7160e01b600052603260045260246000fd5b9050602002013581548110611aab57634e487b7160e01b600052603260045260246000fd5b60009182526020822060039091020190611ac58282612630565b611ad3600183016000612637565b50600201805467ffffffffffffffff19169055600b6000868684818110611b0a57634e487b7160e01b600052603260045260246000fd5b60209081029290920135835250810191909152604001600090812055611b55858583818110611b4957634e487b7160e01b600052603260045260246000fd5b9050602002013561229f565b80611b5f816136ba565b915050611806565b6001600160e01b031981166301ffc9a760e01b14919050565b6000908152600260205260409020546001600160a01b0316151590565b3390565b600081815260046020526040902080546001600160a01b0319166001600160a01b0384169081179091558190611bd682610e4e565b6001600160a01b03167f8c5be1e5ebec7d5bd14f71427d1e84f3dd0314c0f7b2291e5b200ac8c7c3b92560405160405180910390a45050565b6000838383604051602001611c2693929190612be4565b60408051601f1981840301815291815281516020928301206000818152600c90935291205490915080611c6b5760405162461bcd60e51b81526004016107dc90612f0e565b438110611c8a5760405162461bcd60e51b81526004016107dc9061339b565b600a54611c98575050610894565b600a54600090611caa90600190613625565b90505b81600a8281548110611ccf57634e487b7160e01b600052603260045260246000fd5b60009182526020909120600260039092020101546001600160401b03161015611cf757610ac1565b611d8b600a8281548110611d1b57634e487b7160e01b600052603260045260246000fd5b600091825260209091206040805160808101909152916003020160048282826020028201916000905b82829054906101000a900463ffffffff1663ffffffff1681526020019060040190602082600301049283019260010382029150808411611d445790505050505050876121da565b15611da85760405162461bcd60e51b81526004016107dc906132ed565b80611db281613668565b915050611cad565b6001600160a01b038216611de05760405162461bcd60e51b81526004016107dc9061315c565b611de981611b80565b15611e065760405162461bcd60e51b81526004016107dc90612dce565b611e1260008383610894565b6001600160a01b0382166000908152600360205260408120805460019290611e3b90849061344d565b909155505060008181526002602052604080822080546001600160a01b0319166001600160a01b03861690811790915590518392907fddf252ad1be2c89b69c2b068fc378daa952ba7f163c4a11628f55a4df523b3ef908290a45050565b6000611ea482611b80565b611ec05760405162461bcd60e51b81526004016107dc90612f5f565b6000611ecb83610e4e565b9050806001600160a01b0316846001600160a01b03161480611f065750836001600160a01b0316611efb846107b5565b6001600160a01b0316145b80611f165750611f1681856117d5565b949350505050565b826001600160a01b0316611f3182610e4e565b6001600160a01b031614611f575760405162461bcd60e51b81526004016107dc906131dd565b6001600160a01b038216611f7d5760405162461bcd60e51b81526004016107dc90612e5e565b611f88838383610894565b611f93600082611ba1565b6001600160a01b0383166000908152600360205260408120805460019290611fbc908490613625565b90915550506001600160a01b0382166000908152600360205260408120805460019290611fea90849061344d565b909155505060008181526002602052604080822080546001600160a01b0319166001600160a01b0386811691821790925591518493918716917fddf252ad1be2c89b69c2b068fc378daa952ba7f163c4a11628f55a4df523b3ef91a4505050565b60008160030b8360030b12156120615781610fe7565b5090919050565b60008160030b8360030b13156120615781610fe7565b612089848484611f1e565b61209584848484612346565b6114355760405162461bcd60e51b81526004016107dc90612d7c565b6060600980546107329061367f565b6060816120e557506040805180820190915260018152600360fc1b602082015261071e565b8160005b811561210f57806120f9816136ba565b91506121089050600a836134aa565b91506120e9565b6000816001600160401b0381111561213757634e487b7160e01b600052604160045260246000fd5b6040519080825280601f01601f191660200182016040528015612161576020820181803683370190505b5090505b8415611f1657612176600183613625565b9150612183600a866136d5565b61218e90603061344d565b60f81b8183815181106121b157634e487b7160e01b600052603260045260246000fd5b60200101906001600160f81b031916908160001a9053506121d3600a866134aa565b9450612165565b604081015181516000916121ed91613465565b835163ffffffff91821691161015806122215750604083015183516122129190613465565b825163ffffffff918216911610155b1561222e57506000610c5d565b606082015160208301516122429190613465565b63ffffffff16836001602002015163ffffffff161015806122895750606083015160208401516122729190613465565b63ffffffff16826001602002015163ffffffff1610155b1561229657506000610c5d565b50600192915050565b60006122aa82610e4e565b90506122b881600084610894565b6122c3600083611ba1565b6001600160a01b03811660009081526003602052604081208054600192906122ec908490613625565b909155505060008281526002602052604080822080546001600160a01b0319169055518391906001600160a01b038416907fddf252ad1be2c89b69c2b068fc378daa952ba7f163c4a11628f55a4df523b3ef908390a45050565b600061235a846001600160a01b0316612461565b1561245657836001600160a01b031663150b7a02612376611b9d565b8786866040518563ffffffff1660e01b81526004016123989493929190612c94565b602060405180830381600087803b1580156123b257600080fd5b505af19250505080156123e2575060408051601f3d908101601f191682019092526123df91810190612abc565b60015b61243c573d808015612410576040519150601f19603f3d011682016040523d82523d6000602084013e612415565b606091505b5080516124345760405162461bcd60e51b81526004016107dc90612d7c565b805181602001fd5b6001600160e01b031916630a85bd0160e11b149050611f16565b506001949350505050565b3b151590565b604051806060016040528061247a61259e565b815260606020820152600060409091015290565b60018301918390821561251a5791602002820160005b838211156124e857835183826101000a81548163ffffffff021916908363ffffffff16021790555092602001926004016020816003010492830192600103026124a4565b80156125185782816101000a81549063ffffffff02191690556004016020816003010492830192600103026124e8565b505b50612526929150612676565b5090565b8280546125369061367f565b90600052602060002090601f016020900481019282612558576000855561251a565b82601f1061257157805160ff191683800117855561251a565b8280016001018555821561251a579182015b8281111561251a578251825591602001919060010190612583565b60405180608001604052806004906020820280368337509192915050565b8280546125c89061367f565b90600052602060002090601f0160209004810192826125ea576000855561251a565b82601f106126035782800160ff1982351617855561251a565b8280016001018555821561251a579182015b8281111561251a578235825591602001919060010190612615565b5060009055565b5080546126439061367f565b6000825580601f106126555750612673565b601f0160209004906000526020600020908101906126739190612676565b50565b5b808211156125265760008155600101612677565b60006001600160401b03808411156126a5576126a5613715565b604051601f8501601f1916810160200182811182821017156126c9576126c9613715565b6040528481529150818385018610156126e157600080fd5b8484602083013760006020868301015250509392505050565b80356001600160a01b038116811461071e57600080fd5b60008083601f840112612722578182fd5b5081356001600160401b03811115612738578182fd5b602083019150836020808302850101111561275257600080fd5b9250929050565b600082601f830112612769578081fd5b604051608081018181106001600160401b038211171561278b5761278b613715565b60405280836080810186101561279f578384fd5b835b60048110156127c8576127b382612812565b835260209283019291909101906001016127a1565b509195945050505050565b60008083601f8401126127e4578182fd5b5081356001600160401b038111156127fa578182fd5b60208301915083602082850101111561275257600080fd5b803563ffffffff8116811461071e57600080fd5b600060208284031215612837578081fd5b610fe7826126fa565b60008060408385031215612852578081fd5b61285b836126fa565b9150612869602084016126fa565b90509250929050565b600080600060608486031215612886578081fd5b61288f846126fa565b925061289d602085016126fa565b9150604084013590509250925092565b600080600080608085870312156128c2578081fd5b6128cb856126fa565b93506128d9602086016126fa565b92506040850135915060608501356001600160401b038111156128fa578182fd5b8501601f8101871361290a578182fd5b6129198782356020840161268b565b91505092959194509250565b60008060408385031215612937578182fd5b612940836126fa565b915060208301358015158114612954578182fd5b809150509250929050565b60008060408385031215612971578182fd5b61297a836126fa565b946020939093013593505050565b6000806000806040858703121561299d578384fd5b84356001600160401b03808211156129b3578586fd5b6129bf88838901612711565b909650945060208701359150808211156129d7578384fd5b506129e487828801612711565b95989497509550505050565b600060808284031215612a01578081fd5b610fe78383612759565b6000806101008385031215612a1e578182fd5b612a288484612759565b91506128698460808501612759565b600080600060a08486031215612a4b578081fd5b612a558585612759565b925060808401356001600160401b03811115612a6f578182fd5b612a7b868287016127d3565b9497909650939450505050565b600060208284031215612a99578081fd5b5035919050565b600060208284031215612ab1578081fd5b8135610fe78161372b565b600060208284031215612acd578081fd5b8151610fe78161372b565b600060208284031215612ae9578081fd5b81356001600160401b03811115612afe578182fd5b8201601f81018413612b0e578182fd5b611f168482356020840161268b565b600080600060408486031215612b31578081fd5b8335925060208401356001600160401b03811115612a6f578182fd5b600080600060608486031215612b61578081fd5b8335925060208401356001600160801b0381168114612b7e578182fd5b9150604084013560ff81168114612b93578182fd5b809150509250925092565b600060208284031215612baf578081fd5b610fe782612812565b60008151808452612bd081602086016020860161363c565b601f01601f19169290920160200192915050565b60008185825b6004811015612c0f57815163ffffffff16835260209283019290910190600101612bea565b5050508351612c2581608085016020880161363c565b60609390931b6bffffffffffffffffffffffff1916608092909301918201929092526094019392505050565b60008351612c6381846020880161363c565b835190830190612c7781836020880161363c565b01949350505050565b6001600160a01b0391909116815260200190565b6001600160a01b03858116825284166020820152604081018390526080606082018190526000906117cb90830184612bb8565b60808101818360005b6004811015612cf557815163ffffffff16835260209283019290910190600101612cd0565b50505092915050565b901515815260200190565b600060208252610fe76020830184612bb8565b600060408252612d2f6040830185612bb8565b90506001600160401b03831660208301529392505050565b6020808252818101527f6f6e6c792063726561746f722063616e20736574206e65772062617365555249604082015260600190565b60208082526032908201527f4552433732313a207472616e7366657220746f206e6f6e20455243373231526560408201527131b2b4bb32b91034b6b83632b6b2b73a32b960711b606082015260800190565b6020808252601c908201527f4552433732313a20746f6b656e20616c7265616479206d696e74656400000000604082015260600190565b6020808252601390820152721bdb9b1e481bdddb995c8818d85b881cd95b1b606a1b604082015260600190565b60208082526012908201527163616e206f6e6c79206c6f7765722066656560701b604082015260600190565b60208082526024908201527f4552433732313a207472616e7366657220746f20746865207a65726f206164646040820152637265737360e01b606082015260800190565b60208082526019908201527f4552433732313a20617070726f766520746f2063616c6c657200000000000000604082015260600190565b6020808252818101527f6f6e6c792063726561746f722063616e20736574206e65772063726561746f72604082015260600190565b6020808252600e908201526d18dbdb5b5a5d081b9bdd081cd95d60921b604082015260600190565b6020808252600f908201526e7061796d656e7420746f6f206c6f7760881b604082015260600190565b6020808252602c908201527f4552433732313a206f70657261746f7220717565727920666f72206e6f6e657860408201526b34b9ba32b73a103a37b5b2b760a11b606082015260800190565b6020808252600d908201526c6f7574206f6620626f756e647360981b604082015260600190565b60208082526038908201527f4552433732313a20617070726f76652063616c6c6572206973206e6f74206f7760408201527f6e6572206e6f7220617070726f76656420666f7220616c6c0000000000000000606082015260800190565b6020808252602a908201527f4552433732313a2062616c616e636520717565727920666f7220746865207a65604082015269726f206164647265737360b01b606082015260800190565b60208082526029908201527f4552433732313a206f776e657220717565727920666f72206e6f6e657869737460408201526832b73a103a37b5b2b760b91b606082015260800190565b60208082526012908201527118dbdb5b5a5d08185b1c9958591e481cd95d60721b604082015260600190565b6020808252601c908201527f6e6f74206e65776572206f72206e6f74206f7665726c617070696e6700000000604082015260600190565b60208082526017908201527f6f6e6c79206f776e65722063616e207365742069706673000000000000000000604082015260600190565b6020808252818101527f4552433732313a206d696e7420746f20746865207a65726f2061646472657373604082015260600190565b6020808252602c908201527f4552433732313a20617070726f76656420717565727920666f72206e6f6e657860408201526b34b9ba32b73a103a37b5b2b760a11b606082015260800190565b60208082526029908201527f4552433732313a207472616e73666572206f6620746f6b656e2074686174206960408201526839903737ba1037bbb760b91b606082015260800190565b60208082526017908201527f506978656c733a20696e76616c6964207061796d656e74000000000000000000604082015260600190565b6020808252602f908201527f4552433732314d657461646174613a2055524920717565727920666f72206e6f60408201526e3732bc34b9ba32b73a103a37b5b2b760891b606082015260800190565b60208082526021908201527f4552433732313a20617070726f76616c20746f2063757272656e74206f776e656040820152603960f91b606082015260800190565b6020808252601e908201527f627579206661696c65642e20696e74657273656374696f6e20666f756e640000604082015260600190565b60208082526031908201527f4552433732313a207472616e736665722063616c6c6572206973206e6f74206f6040820152701ddb995c881b9bdc88185c1c1c9bdd9959607a1b606082015260800190565b6020808252600c908201526b6e6f7420666f722073616c6560a01b604082015260600190565b60208082526017908201527f636f6d6d69742061742063757272656e7420626c6f636b000000000000000000604082015260600190565b6020808252601c908201527f6f6e6c792063726561746f722063616e20736574206e65772066656500000000604082015260600190565b6001600160801b0392831681529116602082015260400190565b90815260200190565b9182521515602082015260400190565b63ffffffff91909116815260200190565b60008219821115613460576134606136e9565b500190565b600063ffffffff808316818516808303821115612c7757612c776136e9565b60006001600160801b038084168061349e5761349e6136ff565b92169190910492915050565b6000826134b9576134b96136ff565b500490565b60008160030b8360030b637fffffff838213848413838304851182821616156134e9576134e96136e9565b637fffffff1986851282811687830587121615613508576135086136e9565b878712925085820587128484161615613523576135236136e9565b85850587128184161615613539576135396136e9565b5050509290910295945050505050565b60006001600160801b038083168185168183048111821515161561356f5761356f6136e9565b02949350505050565b600062ffffff8083168185168183048111821515161561356f5761356f6136e9565b60008160001904831182151516156135b4576135b46136e9565b500290565b600063ffffffff8083168185168183048111821515161561356f5761356f6136e9565b60008160030b8360030b82811281637fffffff1901831281151615613603576136036136e9565b81637fffffff01831381161561361b5761361b6136e9565b5090039392505050565b600082821015613637576136376136e9565b500390565b60005b8381101561365757818101518382015260200161363f565b838111156114355750506000910152565b600081613677576136776136e9565b506000190190565b60028104600182168061369357607f821691505b602082108114156136b457634e487b7160e01b600052602260045260246000fd5b50919050565b60006000198214156136ce576136ce6136e9565b5060010190565b6000826136e4576136e46136ff565b500690565b634e487b7160e01b600052601160045260246000fd5b634e487b7160e01b600052601260045260246000fd5b634e487b7160e01b600052604160045260246000fd5b6001600160e01b03198116811461267357600080fdfea264697066735822122036e03749d3071e1630609efa999f1378e0863ea5e6fd7123f82bbba25524a61164736f6c63430008000033",
  "linkReferences": {},
  "deployedLinkReferences": {}
}