{
  "_format": "hh-sol-artifact-1",
  "contractName": "Vault",
  "sourceName": "contracts/Vault.sol",
  "abi": [
    {
      "inputs": [
        {
          "internalType": "address[]",
          "name": "_founders",
          "type": "address[]"
        },
        {
          "internalType": "uint256[]",
          "name": "_shares",
          "type": "uint256[]"
        }
      ],
      "stateMutability": "nonpayable",
      "type": "constructor"
    },
    {
      "anonymous": false,
      "inputs": [
        {
          "indexed": true,
          "internalType": "address",
          "name": "owner",
          "type": "address"
        },
        {
          "indexed": true,
          "internalType": "address",
          "name": "spender",
          "type": "address"
        },
        {
          "indexed": false,
          "internalType": "uint256",
          "name": "value",
          "type": "uint256"
        }
      ],
      "name": "Approval",
      "type": "event"
    },
    {
      "anonymous": false,
      "inputs": [
        {
          "indexed": true,
          "internalType": "address",
          "name": "from",
          "type": "address"
        },
        {
          "indexed": true,
          "internalType": "address",
          "name": "to",
          "type": "address"
        },
        {
          "indexed": false,
          "internalType": "uint256",
          "name": "value",
          "type": "uint256"
        }
      ],
      "name": "Transfer",
      "type": "event"
    },
    {
      "inputs": [],
      "name": "accumulatedEarnings",
      "outputs": [
        {
          "internalType": "uint256",
          "name": "",
          "type": "uint256"
        }
      ],
      "stateMutability": "view",
      "type": "function"
    },
    {
      "inputs": [
        {
          "internalType": "address",
          "name": "owner",
          "type": "address"
        },
        {
          "internalType": "address",
          "name": "spender",
          "type": "address"
        }
      ],
      "name": "allowance",
      "outputs": [
        {
          "internalType": "uint256",
          "name": "",
          "type": "uint256"
        }
      ],
      "stateMutability": "view",
      "type": "function"
    },
    {
      "inputs": [
        {
          "internalType": "address",
          "name": "spender",
          "type": "address"
        },
        {
          "internalType": "uint256",
          "name": "amount",
          "type": "uint256"
        }
      ],
      "name": "approve",
      "outputs": [
        {
          "internalType": "bool",
          "name": "",
          "type": "bool"
        }
      ],
      "stateMutability": "nonpayable",
      "type": "function"
    },
    {
      "inputs": [
        {
          "internalType": "address",
          "name": "account",
          "type": "address"
        }
      ],
      "name": "balanceOf",
      "outputs": [
        {
          "internalType": "uint256",
          "name": "",
          "type": "uint256"
        }
      ],
      "stateMutability": "view",
      "type": "function"
    },
    {
      "inputs": [
        {
          "internalType": "uint256",
          "name": "amount",
          "type": "uint256"
        }
      ],
      "name": "burn",
      "outputs": [],
      "stateMutability": "nonpayable",
      "type": "function"
    },
    {
      "inputs": [
        {
          "internalType": "address",
          "name": "account",
          "type": "address"
        },
        {
          "internalType": "uint256",
          "name": "amount",
          "type": "uint256"
        }
      ],
      "name": "burnFrom",
      "outputs": [],
      "stateMutability": "nonpayable",
      "type": "function"
    },
    {
      "inputs": [
        {
          "internalType": "uint256",
          "name": "amount",
          "type": "uint256"
        }
      ],
      "name": "buy",
      "outputs": [],
      "stateMutability": "payable",
      "type": "function"
    },
    {
      "inputs": [],
      "name": "buyPremium",
      "outputs": [
        {
          "internalType": "uint256",
          "name": "",
          "type": "uint256"
        }
      ],
      "stateMutability": "view",
      "type": "function"
    },
    {
      "inputs": [],
      "name": "decimals",
      "outputs": [
        {
          "internalType": "uint8",
          "name": "",
          "type": "uint8"
        }
      ],
      "stateMutability": "view",
      "type": "function"
    },
    {
      "inputs": [
        {
          "internalType": "address",
          "name": "spender",
          "type": "address"
        },
        {
          "internalType": "uint256",
          "name": "subtractedValue",
          "type": "uint256"
        }
      ],
      "name": "decreaseAllowance",
      "outputs": [
        {
          "internalType": "bool",
          "name": "",
          "type": "bool"
        }
      ],
      "stateMutability": "nonpayable",
      "type": "function"
    },
    {
      "inputs": [
        {
          "internalType": "address",
          "name": "spender",
          "type": "address"
        },
        {
          "internalType": "uint256",
          "name": "addedValue",
          "type": "uint256"
        }
      ],
      "name": "increaseAllowance",
      "outputs": [
        {
          "internalType": "bool",
          "name": "",
          "type": "bool"
        }
      ],
      "stateMutability": "nonpayable",
      "type": "function"
    },
    {
      "inputs": [],
      "name": "lastBalance",
      "outputs": [
        {
          "internalType": "uint256",
          "name": "",
          "type": "uint256"
        }
      ],
      "stateMutability": "view",
      "type": "function"
    },
    {
      "inputs": [],
      "name": "name",
      "outputs": [
        {
          "internalType": "string",
          "name": "",
          "type": "string"
        }
      ],
      "stateMutability": "view",
      "type": "function"
    },
    {
      "inputs": [
        {
          "internalType": "uint256",
          "name": "amount",
          "type": "uint256"
        }
      ],
      "name": "sell",
      "outputs": [],
      "stateMutability": "nonpayable",
      "type": "function"
    },
    {
      "inputs": [],
      "name": "symbol",
      "outputs": [
        {
          "internalType": "string",
          "name": "",
          "type": "string"
        }
      ],
      "stateMutability": "view",
      "type": "function"
    },
    {
      "inputs": [],
      "name": "totalSupply",
      "outputs": [
        {
          "internalType": "uint256",
          "name": "",
          "type": "uint256"
        }
      ],
      "stateMutability": "view",
      "type": "function"
    },
    {
      "inputs": [
        {
          "internalType": "address",
          "name": "recipient",
          "type": "address"
        },
        {
          "internalType": "uint256",
          "name": "amount",
          "type": "uint256"
        }
      ],
      "name": "transfer",
      "outputs": [
        {
          "internalType": "bool",
          "name": "",
          "type": "bool"
        }
      ],
      "stateMutability": "nonpayable",
      "type": "function"
    },
    {
      "inputs": [
        {
          "internalType": "address",
          "name": "sender",
          "type": "address"
        },
        {
          "internalType": "address",
          "name": "recipient",
          "type": "address"
        },
        {
          "internalType": "uint256",
          "name": "amount",
          "type": "uint256"
        }
      ],
      "name": "transferFrom",
      "outputs": [
        {
          "internalType": "bool",
          "name": "",
          "type": "bool"
        }
      ],
      "stateMutability": "nonpayable",
      "type": "function"
    },
    {
      "inputs": [
        {
          "internalType": "uint256",
          "name": "value",
          "type": "uint256"
        }
      ],
      "name": "withdraw",
      "outputs": [],
      "stateMutability": "nonpayable",
      "type": "function"
    },
    {
      "stateMutability": "payable",
      "type": "receive"
    }
  ],
  "bytecode": "0x60806040523480156200001157600080fd5b5060405162001cba38038062001cba8339810160408190526200003491620005ed565b6040518060400160405280601481526020017f4d696c6c696f6e506978656c7347616c6c657279000000000000000000000000815250604051806040016040528060038152602001624d504760e81b8152506a084595161401484a000000620000a26200021c60201b60201c565b835184908490620000bb9060039060208501906200047b565b508051620000d19060049060208401906200047b565b505050620000e681836200022060201b60201c565b50506006805460ff1916600117905550508051825114620001245760405162461bcd60e51b81526004016200011b90620007e9565b60405180910390fd5b60005b82518160ff161015620001c157620001ab838260ff16815181106200015c57634e487b7160e01b600052603260045260246000fd5b6020026020010151838360ff16815181106200018857634e487b7160e01b600052603260045260246000fd5b6020026020010151670de0b6b3a7640000620001a59190620008cd565b620002da565b5080620001b88162000946565b91505062000127565b50620001cc620002fb565b6a084595161401484a00000014620001f85760405162461bcd60e51b81526004016200011b906200077b565b81516200020d9060059060208501906200050a565b50506129046009555062000995565b3390565b6001600160a01b038216620002495760405162461bcd60e51b81526004016200011b9062000820565b620002576000838362000301565b80600260008282546200026b9190620008b2565b90915550506001600160a01b038216600090815260208190526040812080548392906200029a908490620008b2565b90915550506040516001600160a01b0383169060009060008051602062001c9a83398151915290620002ce90859062000857565b60405180910390a35050565b6000620002f2620002ea6200021c565b848462000353565b50600192915050565b60025490565b620003198383836200034e60201b620006aa1760201c565b6001600160a01b038316156200034e5760065460ff166200034e5760405162461bcd60e51b81526004016200011b9062000750565b505050565b6001600160a01b0383166200037c5760405162461bcd60e51b81526004016200011b90620007a4565b6001600160a01b038216620003a55760405162461bcd60e51b81526004016200011b90620006c7565b620003b283838362000301565b6001600160a01b03831660009081526020819052604090205481811015620003ee5760405162461bcd60e51b81526004016200011b906200070a565b620003fa8282620008ef565b6001600160a01b03808616600090815260208190526040808220939093559085168152908120805484929062000432908490620008b2565b92505081905550826001600160a01b0316846001600160a01b031660008051602062001c9a833981519152846040516200046d919062000857565b60405180910390a350505050565b828054620004899062000909565b90600052602060002090601f016020900481019282620004ad5760008555620004f8565b82601f10620004c857805160ff1916838001178555620004f8565b82800160010185558215620004f8579182015b82811115620004f8578251825591602001919060010190620004db565b506200050692915062000562565b5090565b828054828255906000526020600020908101928215620004f8579160200282015b82811115620004f857825182546001600160a01b0319166001600160a01b039091161782556020909201916001909101906200052b565b5b8082111562000506576000815560010162000563565b600082601f8301126200058a578081fd5b81516020620005a36200059d836200088c565b62000860565b8281528181019085830183850287018401881015620005c0578586fd5b855b85811015620005e057815184529284019290840190600101620005c2565b5090979650505050505050565b6000806040838503121562000600578182fd5b82516001600160401b038082111562000617578384fd5b818501915085601f8301126200062b578384fd5b815160206200063e6200059d836200088c565b82815281810190858301838502870184018b10156200065b578889fd5b8896505b84871015620006945780516001600160a01b03811681146200067f57898afd5b8352600196909601959183019183016200065f565b5091880151919650909350505080821115620006ae578283fd5b50620006bd8582860162000579565b9150509250929050565b60208082526023908201527f45524332303a207472616e7366657220746f20746865207a65726f206164647260408201526265737360e81b606082015260800190565b60208082526026908201527f45524332303a207472616e7366657220616d6f756e7420657863656564732062604082015265616c616e636560d01b606082015260800190565b602080825260119082015270736861726573206e6f742061637469766560781b604082015260600190565b6020808252600f908201526e6e6f7420313030252073686172657360881b604082015260600190565b60208082526025908201527f45524332303a207472616e736665722066726f6d20746865207a65726f206164604082015264647265737360d81b606082015260800190565b60208082526013908201527f696e76616c69642064617461206c656e67746800000000000000000000000000604082015260600190565b6020808252601f908201527f45524332303a206d696e7420746f20746865207a65726f206164647265737300604082015260600190565b90815260200190565b6040518181016001600160401b03811182821017156200088457620008846200097f565b604052919050565b60006001600160401b03821115620008a857620008a86200097f565b5060209081020190565b60008219821115620008c857620008c862000969565b500190565b6000816000190483118215151615620008ea57620008ea62000969565b500290565b60008282101562000904576200090462000969565b500390565b6002810460018216806200091e57607f821691505b602082108114156200094057634e487b7160e01b600052602260045260246000fd5b50919050565b600060ff821660ff81141562000960576200096062000969565b60010192915050565b634e487b7160e01b600052601160045260246000fd5b634e487b7160e01b600052604160045260246000fd5b6112f580620009a56000396000f3fe6080604052600436106101185760003560e01c806370a08231116100a0578063a457c2d711610064578063a457c2d7146102d6578063a9059cbb146102f6578063d96a094a14610316578063dd62ed3e14610329578063e4849b32146103495761011f565b806370a082311461025757806379cc6790146102775780638a53ac4f146102975780638f1c56bd146102ac57806395d89b41146102c15761011f565b80632e1a7d4d116100e75780632e1a7d4d146101be578063313ce567146101e057806339509351146102025780633af1bc401461022257806342966c68146102375761011f565b806306fdde0314610124578063095ea7b31461014f57806318160ddd1461017c57806323b872dd1461019e5761011f565b3661011f57005b600080fd5b34801561013057600080fd5b50610139610369565b6040516101469190610da6565b60405180910390f35b34801561015b57600080fd5b5061016f61016a366004610d5a565b6103fb565b6040516101469190610d9b565b34801561018857600080fd5b50610191610418565b60405161014691906111e9565b3480156101aa57600080fd5b5061016f6101b9366004610d1f565b61041e565b3480156101ca57600080fd5b506101de6101d9366004610d83565b6104be565b005b3480156101ec57600080fd5b506101f56105cd565b60405161014691906111f2565b34801561020e57600080fd5b5061016f61021d366004610d5a565b6105d2565b34801561022e57600080fd5b50610191610621565b34801561024357600080fd5b506101de610252366004610d83565b610627565b34801561026357600080fd5b50610191610272366004610ccc565b61063b565b34801561028357600080fd5b506101de610292366004610d5a565b61065a565b3480156102a357600080fd5b506101916106af565b3480156102b857600080fd5b506101916106b5565b3480156102cd57600080fd5b506101396106bb565b3480156102e257600080fd5b5061016f6102f1366004610d5a565b6106ca565b34801561030257600080fd5b5061016f610311366004610d5a565b610745565b6101de610324366004610d83565b610759565b34801561033557600080fd5b50610191610344366004610ced565b6107ea565b34801561035557600080fd5b506101de610364366004610d83565b610815565b6060600380546103789061126e565b80601f01602080910402602001604051908101604052809291908181526020018280546103a49061126e565b80156103f15780601f106103c6576101008083540402835291602001916103f1565b820191906000526020600020905b8154815290600101906020018083116103d457829003601f168201915b5050505050905090565b600061040f6104086108f3565b84846108f7565b50600192915050565b60025490565b600061042b8484846109ab565b6001600160a01b03841660009081526001602052604081208161044c6108f3565b6001600160a01b03166001600160a01b03168152602001908152602001600020549050828110156104985760405162461bcd60e51b815260040161048f90610fb3565b60405180910390fd5b6104b3856104a46108f3565b6104ae8685611257565b6108f7565b506001949350505050565b60065460ff16156104e15760405162461bcd60e51b815260040161048f906110c5565b6008546104ef903031611257565b600760008282546105009190611200565b9091555060009050610510610418565b60075461051e6102726108f3565b6105289190611238565b6105329190611218565b9050600a60006105406108f3565b6001600160a01b031681526020810191909152604001600020546105649083611200565b8110156105835760405162461bcd60e51b815260040161048f90610ec0565b81600a60006105906108f3565b6001600160a01b03166001600160a01b0316815260200190815260200160002060008282546105bf9190611200565b909155505050303160085550565b601290565b600061040f6105df6108f3565b8484600160006105ed6108f3565b6001600160a01b03908116825260208083019390935260409182016000908120918b16815292529020546104ae9190611200565b60095481565b6106386106326108f3565b82610ad3565b50565b6001600160a01b0381166000908152602081905260409020545b919050565b6000610668836103446108f3565b90508181101561068a5760405162461bcd60e51b815260040161048f90610ffb565b6106a0836106966108f3565b6104ae8585611257565b6106aa8383610ad3565b505050565b60075481565b60085481565b6060600480546103789061126e565b600080600160006106d96108f3565b6001600160a01b03908116825260208083019390935260409182016000908120918816815292529020549050828110156107255760405162461bcd60e51b815260040161048f9061116d565b61073b6107306108f3565b856104ae8685611257565b5060019392505050565b600061040f6107526108f3565b84846109ab565b60065460ff1661077b5760405162461bcd60e51b815260040161048f90610f88565b6000610785610418565b61079190612710611238565b60095461079f843031611238565b6107a99190611238565b6107b39190611218565b9050348111156107d55760405162461bcd60e51b815260040161048f90610f33565b6107e66107e06108f3565b83610bb9565b5050565b6001600160a01b03918216600090815260016020908152604080832093909416825291909152205490565b60065460ff166108375760405162461bcd60e51b815260040161048f90610f88565b806108436102726108f3565b10156108615760405162461bcd60e51b815260040161048f90610f5c565b600061086b610418565b610876833031611238565b6108809190611218565b9050600081116108a25760405162461bcd60e51b815260040161048f90611140565b6108b36108ad6108f3565b83610ad3565b6108bb6108f3565b6001600160a01b03166108fc829081150290604051600060405180830381858888f193505050501580156106aa573d6000803e3d6000fd5b3390565b6001600160a01b03831661091d5760405162461bcd60e51b815260040161048f906110fc565b6001600160a01b0382166109435760405162461bcd60e51b815260040161048f90610e7e565b6001600160a01b0380841660008181526001602090815260408083209487168084529490915290819020849055517f8c5be1e5ebec7d5bd14f71427d1e84f3dd0314c0f7b2291e5b200ac8c7c3b9259061099e9085906111e9565b60405180910390a3505050565b6001600160a01b0383166109d15760405162461bcd60e51b815260040161048f90611080565b6001600160a01b0382166109f75760405162461bcd60e51b815260040161048f90610df9565b610a02838383610c79565b6001600160a01b03831660009081526020819052604090205481811015610a3b5760405162461bcd60e51b815260040161048f90610eed565b610a458282611257565b6001600160a01b038086166000908152602081905260408082209390935590851681529081208054849290610a7b908490611200565b92505081905550826001600160a01b0316846001600160a01b03167fddf252ad1be2c89b69c2b068fc378daa952ba7f163c4a11628f55a4df523b3ef84604051610ac591906111e9565b60405180910390a350505050565b6001600160a01b038216610af95760405162461bcd60e51b815260040161048f9061103f565b610b0582600083610c79565b6001600160a01b03821660009081526020819052604090205481811015610b3e5760405162461bcd60e51b815260040161048f90610e3c565b610b488282611257565b6001600160a01b03841660009081526020819052604081209190915560028054849290610b76908490611257565b90915550506040516000906001600160a01b038516907fddf252ad1be2c89b69c2b068fc378daa952ba7f163c4a11628f55a4df523b3ef9061099e9086906111e9565b6001600160a01b038216610bdf5760405162461bcd60e51b815260040161048f906111b2565b610beb60008383610c79565b8060026000828254610bfd9190611200565b90915550506001600160a01b03821660009081526020819052604081208054839290610c2a908490611200565b90915550506040516001600160a01b038316906000907fddf252ad1be2c89b69c2b068fc378daa952ba7f163c4a11628f55a4df523b3ef90610c6d9085906111e9565b60405180910390a35050565b610c848383836106aa565b6001600160a01b038316156106aa5760065460ff166106aa5760405162461bcd60e51b815260040161048f90610f88565b80356001600160a01b038116811461065557600080fd5b600060208284031215610cdd578081fd5b610ce682610cb5565b9392505050565b60008060408385031215610cff578081fd5b610d0883610cb5565b9150610d1660208401610cb5565b90509250929050565b600080600060608486031215610d33578081fd5b610d3c84610cb5565b9250610d4a60208501610cb5565b9150604084013590509250925092565b60008060408385031215610d6c578182fd5b610d7583610cb5565b946020939093013593505050565b600060208284031215610d94578081fd5b5035919050565b901515815260200190565b6000602080835283518082850152825b81811015610dd257858101830151858201604001528201610db6565b81811115610de35783604083870101525b50601f01601f1916929092016040019392505050565b60208082526023908201527f45524332303a207472616e7366657220746f20746865207a65726f206164647260408201526265737360e81b606082015260800190565b60208082526022908201527f45524332303a206275726e20616d6f756e7420657863656564732062616c616e604082015261636560f01b606082015260800190565b60208082526022908201527f45524332303a20617070726f766520746f20746865207a65726f206164647265604082015261737360f01b606082015260800190565b60208082526013908201527276616c7565206e6f7420617661696c61626c6560681b604082015260600190565b60208082526026908201527f45524332303a207472616e7366657220616d6f756e7420657863656564732062604082015265616c616e636560d01b606082015260800190565b6020808252600f908201526e7061796d656e7420746f6f206c6f7760881b604082015260600190565b6020808252601290820152716e6f7420656e6f7567682062616c616e636560701b604082015260600190565b602080825260119082015270736861726573206e6f742061637469766560781b604082015260600190565b60208082526028908201527f45524332303a207472616e7366657220616d6f756e74206578636565647320616040820152676c6c6f77616e636560c01b606082015260800190565b60208082526024908201527f45524332303a206275726e20616d6f756e74206578636565647320616c6c6f77604082015263616e636560e01b606082015260800190565b60208082526021908201527f45524332303a206275726e2066726f6d20746865207a65726f206164647265736040820152607360f81b606082015260800190565b60208082526025908201527f45524332303a207472616e736665722066726f6d20746865207a65726f206164604082015264647265737360d81b606082015260800190565b60208082526019908201527f73686172657320686173206265656e2061637469766174656400000000000000604082015260600190565b60208082526024908201527f45524332303a20617070726f76652066726f6d20746865207a65726f206164646040820152637265737360e01b606082015260800190565b6020808252601390820152721b9bdd08195b9bdd59da081a5b881d985d5b1d606a1b604082015260600190565b60208082526025908201527f45524332303a2064656372656173656420616c6c6f77616e63652062656c6f77604082015264207a65726f60d81b606082015260800190565b6020808252601f908201527f45524332303a206d696e7420746f20746865207a65726f206164647265737300604082015260600190565b90815260200190565b60ff91909116815260200190565b60008219821115611213576112136112a9565b500190565b60008261123357634e487b7160e01b81526012600452602481fd5b500490565b6000816000190483118215151615611252576112526112a9565b500290565b600082821015611269576112696112a9565b500390565b60028104600182168061128257607f821691505b602082108114156112a357634e487b7160e01b600052602260045260246000fd5b50919050565b634e487b7160e01b600052601160045260246000fdfea2646970667358221220da871deb835bc15c98867fbcabc6a6b3d5e6c3a6e0db508c8260407d13b3d38864736f6c63430008000033ddf252ad1be2c89b69c2b068fc378daa952ba7f163c4a11628f55a4df523b3ef",
  "linkReferences": {},
  "deployedLinkReferences": {}
}